:020000040800F2
:1000000000000120611E0008D1180008D318000864
:10001000D5180008D7180008D918000800000000FB
:10002000000000000000000000000000DB180008D5
:10003000DD18000800000000DF180008E1180008C3
:10004000B11E0008B11E0008B11E0008B11E000854
:10005000B11E0008B11E0008B11E0008B11E000844
:10006000B11E0008B11E0008B11E0008B11E000834
:10007000B11E0008B11E0008B11E0008B11E000824
:10008000B11E0008B11E0008B11E000800000000EB
:10009000000000000000000000000000B11E000889
:1000A000B11E0008B11E0008B11E0008B11E0008F4
:1000B000B11E0008E9180008B11E0008B11E0008B2
:1000C000B11E0008B11E0008B11E0008B11E0008D4
:1000D000B11E0008F9180008091900080000000006
:1000E000B11E0008B11E0008B11E0008000000008B
:1000F000000000000000000000000000B11E000829
:1001000000000000B11E0008B11E0008B11E00086A
:1001100000000000000000000000000000000000DF
:10012000B11E0008B11E0008B11E0008B11E000873
:10013000B11E0008000000000000000000000000E8
:10014000000000000000000000000000B11E0008D8
:10015000B11E0008B11E0008B11E0008B11E000843
:10016000B11E0008B11E00080000000000000000E1
:10017000000000000000000000000000000000007F
:1001800000000000B11E0008000000000000000098
:04019000B11E000894
:1001980010B5054C237833B9044B13B10448AFF3B9
:1001A80000800123237010BD7004002000000000AF
:1001B8006843000808B5034B1BB103490348AFF374
:1001C800008008BD00000000740400206843000897
:1001D80081F0004102E000BF83F0004330B54FEAF0
:1001E80041044FEA430594EA050F08BF90EA020F5D
:1001F8001FBF54EA000C55EA020C7FEA645C7FEAF0
:10020800655C00F0E2804FEA5454D4EB5555B8BF12
:100218006D420CDD2C4480EA020281EA030382EA83
:10022800000083EA010180EA020281EA0303362D15
:1002380088BF30BD11F0004F4FEA01314FF4801CE8
:100248004CEA113102D0404261EB410113F0004FFA
:100258004FEA03334CEA133302D0524263EB4303B1
:1002680094EA050F00F0A780A4F10104D5F1200E4F
:100278000DDB02FA0EFC22FA05F2801841F10001AA
:1002880003FA0EF2801843FA05F359410EE0A5F17E
:1002980020050EF1200E012A03FA0EFC28BF4CF0AF
:1002A800020C43FA05F3C01851EBE37101F0004565
:1002B80007D54FF0000EDCF1000C7EEB00006EEB72
:1002C8000101B1F5801F1BD3B1F5001F0CD34908FC
:1002D8005FEA30004FEA3C0C04F101044FEA445253
:1002E80012F5800F80F09A80BCF1004F08BF5FEADA
:1002F800500C50F1000041EB045141EA050130BDBA
:100308005FEA4C0C404141EB0101013C28BFB1F5CB
:10031800801FE9D291F0000F04BF01460020B1FA16
:1003280081F308BF2033A3F10B03B3F120020CDAE9
:100338000C3208DD02F1140CC2F10C0201FA0CF0C7
:1003480021FA02F10CE002F11402D8BFC2F1200C2C
:1003580001FA02F120FA0CFCDCBF41EA0C019040E2
:10036800E41AA2BF01EB0451294330BD6FEA04042B
:100378001F3C1CDA0C340EDC04F11404C4F1200216
:1003880020FA04F001FA02F340EA030021FA04F328
:1003980045EA030130BDC4F10C04C4F1200220FA7F
:1003A80002F001FA04F340EA0300294630BD21FABD
:1003B80004F0294630BD94F0000F83F4801306BF83
:1003C80081F480110134013D4EE77FEA645C18BF77
:1003D8007FEA655C29D094EA050F08BF90EA020F0E
:1003E80005D054EA000C04BF1946104630BD91EA06
:1003F800030F1EBF0021002030BD5FEA545C05D109
:100408004000494128BF41F0004130BD14F5800447
:100418003CBF01F5801130BD01F0004545F0FE41BB
:1004280041F470014FF0000030BD7FEA645C1ABFF0
:10043800194610467FEA655C1CBF0B46024650EA27
:10044800013406BF52EA033591EA030F41F4002153
:1004580030BD00BF90F0000F04BF0021704730B5D9
:100468004FF4806404F132044FF000054FF00001AE
:1004780050E700BF90F0000F04BF0021704730B56F
:100488004FF4806404F1320410F0004548BF404244
:100498004FF000013EE700BF42004FEAE2014FEA99
:1004A80031014FEA02701FBF12F07F4393F07F4F74
:1004B80081F06051704732F07F4208BF704793F077
:1004C8007F4F04BF41F40021704730B54FF460748A
:1004D80001F0004521F000411CE700BF50EA01028D
:1004E80008BF704730B54FF000050AE050EA010236
:1004F80008BF704730B511F0004502D5404261EBA6
:1005080041014FF4806404F132045FEA915C3FF4E6
:10051800D8AE4FF003025FEADC0C18BF03325FEA83
:10052800DC0C18BF033202EBDC02C2F1200300FA34
:1005380003FC20FA02F001FA03FE40EA0E0021FA59
:1005480002F11444BDE600BF70B54FF0FF0C4CF447
:10055800E06C1CEA11541DBF1CEA135594EA0C0FF9
:1005680095EA0C0F00F0DEF82C4481EA030621EA34
:100578004C5123EA4C5350EA013518BF52EA03356F
:1005880041F4801143F4801338D0A0FB02CE4FF021
:100598000005E1FB02E506F00042E0FB03E54FF051
:1005A8000006E1FB03569CF0000F18BF4EF0010E49
:1005B800A4F1FF04B6F5007F64F5407404D25FEA45
:1005C8004E0E6D4146EB060642EAC62141EA5551F8
:1005D8004FEAC52040EA5E504FEACE2EB4F1FD0C3A
:1005E80088BFBCF5E06F1ED8BEF1004F08BF5FEAB8
:1005F800500E50F1000041EB045170BD06F000466A
:1006080046EA010140EA020081EA0301B4EB5C0416
:10061800C2BFD4EB0C0541EA045170BD41F480110E
:100628004FF0000E013C00F3AB8014F1360FDEBF33
:10063800002001F0004170BDC4F10004203C35DA0F
:100648000C341BDC04F11404C4F1200500FA05F392
:1006580020FA04F001FA05F240EA020001F0004233
:1006680021F0004110EBD37021FA04F642EB0601A9
:100678005EEA430E08BF20EAD37070BDC4F10C04D3
:10068800C4F1200500FA04F320FA05F001FA04F297
:1006980040EA020001F0004110EBD37041F1000183
:1006A8005EEA430E08BF20EAD37070BDC4F120058E
:1006B80000FA05F24EEA020E20FA04F301FA05F2F6
:1006C80043EA020321FA04F001F0004121FA04F29E
:1006D80020EA020000EBD3705EEA430E08BF20EA6E
:1006E800D37070BD94F0000F0FD101F000464000A8
:1006F80041EB010111F4801F08BF013CF7D041EA2A
:10070800060195F0000F18BF704703F0004652002D
:1007180043EB030313F4801F08BF013DF7D043EAFE
:100728000603704794EA0C0F0CEA135518BF95EAB4
:100738000C0F0CD050EA410618BF52EA4306D1D13B
:1007480081EA030101F000414FF0000070BD50EA5A
:10075800410606BF1046194652EA430619D094EAE4
:100768000C0F02D150EA013613D195EA0C0F05D1CE
:1007780052EA03361CBF104619460AD181EA030122
:1007880001F0004141F0FE4141F470014FF00000DA
:1007980070BD41F0FE4141F4780170BD70B54FF075
:1007A800FF0C4CF4E06C1CEA11541DBF1CEA1355F5
:1007B80094EA0C0F95EA0C0F00F0A7F8A4EB0504D7
:1007C80081EA030E52EA03354FEA013100F08880CE
:1007D8004FEA03334FF0805545EA131343EA126397
:1007E8004FEA022245EA111545EA10654FEA00264C
:1007F8000EF000419D4208BF964244F1FD0404F505
:10080800407402D25B084FEA3202B61A65EB030560
:100818005B084FEA32024FF480104FF4002CB6EB1D
:10082800020E75EB030E22BFB61A754640EA0C009D
:100838005B084FEA3202B6EB020E75EB030E22BFDD
:10084800B61A754640EA5C005B084FEA3202B6EB1E
:10085800020E75EB030E22BFB61A754640EA9C00DD
:100868005B084FEA3202B6EB020E75EB030E22BFAD
:10087800B61A754640EADC0055EA060E18D04FEA6B
:10088800051545EA16754FEA06164FEAC30343EA0B
:1008980052734FEAC2025FEA1C1CC0D111F4801FD8
:1008A8000BD141EA00014FF000004FF0004CB6E7D1
:1008B80011F4801F04BF01430020B4F1FD0C88BF70
:1008C800BCF5E06F3FF6AFAEB5EB030C04BFB6EB7B
:1008D800020C5FEA500C50F1000041EB045170BD6E
:1008E8000EF0004E4EEA113114EB5C04C2BFD4EB9B
:1008F8000C0541EA045170BD41F480114FF0000E1F
:10090800013C90E645EA060E8DE60CEA135594EA9A
:100918000C0F08BF95EA0C0F3FF43BAF94EA0C0F9D
:100928000AD150EA01347FF434AF95EA0C0F7FF412
:1009380025AF104619462CE795EA0C0F06D152EA66
:1009480003353FF4FDAE1046194622E750EA41064A
:1009580018BF52EA43067FF4C5AE50EA41047FF45B
:100968000DAF52EA43057FF4EBAE12E74A0011D20D
:1009780012F5001211D20DD56FF47873B3EB6252F1
:100988000ED44FEAC12343F0004343EA505323FAFD
:1009980002F070474FF00000704750EA013002D172
:1009A8004FF0FF3070474FF0000070474FEA4102A8
:1009B800B2F1E04324BFB3F5001CDCF1FE5C0DD9B5
:1009C80001F0004C4FEAC0024CEA5070B2F1004FFF
:1009D80040EB830008BF20F00100704711F0804F02
:1009E80021D113F13872BCBF01F00040704741F4C7
:1009F80080114FEA5252C2F11802C2F1200C10FACB
:100A08000CF320FA02F018BF40F001004FEAC123AE
:100A18004FEAD32303FA0CFC40EA0C0023FA02F352
:100A28004FEA4303CCE77FEA625307D150EA013328
:100A38001EBF4FF0FE4040F44000704701F00040F8
:100A480040F0FE4040F40000704700BF80F00040D6
:100A580002E000BF81F0004142001FBF5FEA41038E
:100A680092EA030F7FEA226C7FEA236C6AD04FEA8E
:100A78001262D2EB1363C1BFD218414048404140D3
:100A8800B8BF5B42192B88BF704710F0004F40F485
:100A9800000020F07F4018BF404211F0004F41F4A1
:100AA800000121F07F4118BF494292EA030F3FD06D
:100AB800A2F1010241FA03FC10EB0C00C3F1200380
:100AC80001FA03F100F0004302D5494260EB40000F
:100AD800B0F5000F13D3B0F1807F06D340084FEA7A
:100AE800310102F10102FE2A51D2B1F1004F40EB6F
:100AF800C25008BF20F0010040EA030070474900D7
:100B080040EB0000013A28BFB0F5000FEDD2B0FA73
:100B180080FCACF1080CB2EB0C0200FA0CF0AABF96
:100B280000EBC25052421843BCBFD0401843704734
:100B380092F0000F81F4000106BF80F4000001323A
:100B4800013BB5E74FEA41037FEA226C18BF7FEA11
:100B5800236C21D092EA030F04D092F0000F08BF53
:100B68000846704790EA010F1CBF0020704712F03A
:100B78007F4F04D1400028BF40F00040704712F179
:100B880000723CBF00F50000704700F0004343F0DE
:100B9800FE4040F4000070477FEA226216BF084614
:100BA8007FEA23630146420206BF5FEA412390EAD7
:100BB800010F40F4800070474FF0000304E000BFCD
:100BC80010F0004348BF40425FEA000C08BF70477E
:100BD80043F0964301464FF000001CE050EA010242
:100BE80008BF70474FF000030AE000BF50EA010257
:100BF80008BF704711F0004302D5404261EB410144
:100C08005FEA010C02BF84460146002043F0B64368
:100C180008BFA3F18053A3F50003BCFA8CF2083A8D
:100C2800A3EBC25310DB01FA02FC634400FA02FC96
:100C3800C2F12002BCF1004F20FA02F243EB02009D
:100C480008BF20F00100704702F1200201FA02FCFF
:100C5800C2F1200250EA4C0021FA02F243EB0200F2
:100C680008BF20EADC7070474FF0FF0C1CEAD05236
:100C78001EBF1CEAD15392EA0C0F93EA0C0F6FD0F7
:100C88001A4480EA010C400218BF5FEA41211ED0D5
:100C98004FF0006343EA501043EA5111A0FB0131C1
:100CA8000CF00040B1F5000F3EBF490041EAD37196
:100CB8005B0040EA010062F17F02FD2A1DD8B3F112
:100CC800004F40EBC25008BF20F00100704790F081
:100CD800000F0CF0004C08BF49024CEA502040EAD3
:100CE80051207F3AC2BFD2F1FF0340EAC250704799
:100CF80040F400004FF00003013A5DDC12F1190FD7
:100D0800DCBF00F000407047C2F10002410021FA48
:100D180002F1C2F1200200FA02FC5FEA310040F160
:100D2800000053EA4C0308BF20EADC70704792F0D9
:100D3800000F00F0004C02BF400010F4000F013A11
:100D4800F9D040EA0C0093F0000F01F0004C02BF0C
:100D5800490011F4000F013BF9D041EA0C018FE77B
:100D68000CEAD15392EA0C0F18BF93EA0C0F0AD081
:100D780030F0004C18BF31F0004CD8D180EA0100A7
:100D880000F00040704790F0000F17BF90F0004F40
:100D9800084691F0000F91F0004F14D092EA0C0F22
:100DA80001D142020FD193EA0C0F03D14B0218BFB5
:100DB800084608D180EA010000F0004040F0FE40FB
:100DC80040F40000704740F0FE4040F44000704797
:100DD8004FF0FF0C1CEAD0521EBF1CEAD15392EA16
:100DE8000C0F93EA0C0F69D0A2EB030280EA010C06
:100DF80049024FEA402037D04FF0805343EA11119F
:100E080043EA10130CF000408B4238BF5B0042F1FC
:100E18007D024FF4000C8B4224BF5B1A40EA0C00A1
:100E2800B3EB510F24BFA3EB510340EA5C00B3EBD3
:100E3800910F24BFA3EB910340EA9C00B3EBD10FC1
:100E480024BFA3EBD10340EADC001B0118BF5FEA13
:100E58001C1CE0D1FD2A3FF650AF8B4240EBC2503C
:100E680008BF20F0010070470CF0004C4CEA5020FD
:100E78007F32C2BFD2F1FF0340EAC250704740F44C
:100E880000004FF00003013A37E792F0000F00F03E
:100E9800004C02BF400010F4000F013AF9D040EABC
:100EA8000C0093F0000F01F0004C02BF490011F450
:100EB800000F013BF9D041EA0C0195E70CEAD15348
:100EC80092EA0C0F08D142027FF47DAF93EA0C0F2F
:100ED8007FF470AF084676E793EA0C0F04D14B0213
:100EE8003FF44CAF08466EE730F0004C18BF31F0C5
:100EF800004CCAD130F000427FF45CAF31F00043BF
:100F08007FF43CAF5FE700BF4FF0FF3C06E000BF57
:100F18004FF0010C02E000BF4FF0010C4DF804CD7A
:100F28004FEA40024FEA41037FEA226C18BF7FEA8A
:100F3800236C11D001B052EA530C18BF90EA010F8C
:100F480058BFB2EB030088BFC81738BF6FEAE1701B
:100F580018BF40F0010070477FEA226C02D15FEAB7
:100F6800402C05D17FEA236CE4D15FEA412CE1D023
:100F78005DF8040B704700BF844608466146FFE7EA
:100F88000FB5FFF7C9FF002848BF10F1000F0FBDCC
:100F98004DF808EDFFF7F4FF0CBF012000205DF8C5
:100FA80008FB00BF4DF808EDFFF7EAFF34BF01204A
:100FB80000205DF808FB00BF4DF808EDFFF7E0FFE3
:100FC80094BF012000205DF808FB00BF4DF808ED34
:100FD800FFF7D2FF94BF012000205DF808FB00BF97
:100FE8004DF808EDFFF7C8FF34BF012000205DF879
:100FF80008FB00BF42000ED2B2F1FE4F0BD34FF0F8
:101008009E03B3EB126209D44FEA002343F0004376
:1010180023FA02F070474FF00000704712F1610F99
:1010280001D1420202D14FF0FF3070474FF000006B
:10103800704700BF53B94AB9002908BF00281CBF30
:101048004FF0FF314FF0FF3000F074B9ADF1080CEC
:101058006DE904CE00F006F8DDF804E0DDE90223CE
:1010680004B070472DE9F047089E0D4604468846AF
:10107800002B4DD18A42944668D9B2FA82F252B115
:1010880001FA02F3C2F1200120FA01F10CFA02FC84
:1010980041EA030894404FEA1C45210CB8FBF5FED1
:1010A8001FFA8CF705FB1E8341EA03430EFB07F189
:1010B80099420BD91CEB03030EF1FF3080F01E811F
:1010C800994240F21B81AEF1020E63445B1AA4B24E
:1010D800B3FBF5F005FB103344EA034400FB07F7C4
:1010E800A7420AD91CEB040400F1FF3380F0088101
:1010F800A74240F2058164440238E41B40EA0E40EE
:1011080000211EB1D4400023C6E90043BDE8F087A2
:101118008B4208D9002E00F0EE800021C6E90005B8
:101128000846BDE8F087B3FA83F100294AD1AB42FB
:1011380002D3824200F2F980841A65EB030301208E
:101148009846002EE2D0C6E90048DFE702B9FFDE84
:10115800B2FA82F2002A40F09180A1EB0C054FEA26
:101168001C471FFA8CFE0121B5FBF7F307FB135050
:10117800250C45EA00450EFB03F0A84208D91CEBF4
:10118800050503F1FF3802D2A84200F2CB8043469E
:101198002D1AA4B2B5FBF7F007FB105544EA054435
:1011A8000EFB00FEA64508D91CEB040400F1FF3530
:1011B80002D2A64500F2BB802846A4EB0E0440EA02
:1011C80003409EE7C1F120078B4022FA07FC4CEA56
:1011D800030C20FA07F405FA01F31C43FD404FEA1B
:1011E8001C4900FA01F3B5FBF9F8200C1FFA8CFE34
:1011F80009FB185540EA054508FB0EF0A84202FA1B
:1012080001F20BD91CEB050508F1FF3A80F0888044
:10121800A84240F28580A8F1020865442D1AA4B2BC
:10122800B5FBF9F009FB105544EA054500FB0EFE35
:10123800AE4508D91CEB050500F1FF346CD2AE456C
:101248006AD90238654440EA0840A0FB0294A5EB3D
:101258000E05A542C846A64656D353D05EB1B3EB99
:10126800080265EB0E0505FA07F722FA01F3CD40EF
:101278001F43C6E900750021BDE8F087C2F12003CD
:1012880020FA03F10CFA02FC25FA03F395400D430A
:101298004FEA1C471FFA8CFEB3FBF7F107FB11302E
:1012A8002B0C43EA004301FB0EF0984204FA02F4C7
:1012B80008D91CEB030301F1FF382FD298422DD92E
:1012C800023963441B1AADB2B3FBF7F007FB1033C6
:1012D80045EA034500FB0EF3AB4208D91CEB0505B4
:1012E80000F1FF3816D2AB4214D902386544ED1A22
:1012F80040EA014138E73146304607E78646E5E6E9
:101308001846FAE64B45A9D2B9EB020864EB0C0E75
:101318000138A3E74046EAE7204694E74146D1E78B
:10132800D0467BE7023B654432E7084609E7644458
:10133800023842E7704700BFF0B589B00024039433
:1013480004940594069407940094294B1A6B42F070
:1013580080021A631A6B02F080020092009A0194CC
:101368001A6B42F001021A631A6B02F00102019231
:10137800019A02941A6B42F002021A631B6B03F083
:1013880002030293029B1B4F2246C021384600F0FD
:10139800A4FF194D224640F24111284600F09DFF56
:1013A800C0230393012604960594069403A938469E
:1013B80000F0ACFE40F241130393049605940694A2
:1013C80003A9284600F0A2FE20230393049405965F
:1013D80003A9284600F09AFE4FF40073039304947F
:1013E8000223059303A9284600F090FE09B0F0BD3A
:1013F80000380240000002400004024072B6FEE7D6
:1014080000B595B03022002108A802F0E7FE0023BD
:10141800039304930593069307930193204A116C51
:1014280041F080511164126C02F080520192019ACD
:1014380002931C4A136823F4404343F400431360A7
:10144800136803F440430293029B012308934FF46B
:101458008033099302230E934FF480020F921922CE
:101468001092A822119212930423139308A800F053
:101478003BFF80B90F2303930221049100230593B6
:101488004FF480520692079303A801F07BF920B924
:1014980015B05DF804FBFFF7B1FFFFF7AFFF00BF22
:1014A800003802400070004080B586B000F024FD8E
:1014B800FFF7A6FFFFF740FF00F05CFA00F012FC10
:1014C80000F02AFC00F026FA00F08CFA00F08EFBFF
:1014D800AD4801F0DFFA4FF07E5002F073FA0421B4
:1014E800AA4802F0A3FAAA4C0021204601F00CFEFB
:1014F8000821204601F008FEA64C0021204601F0F4
:101508007BFE0421204601F077FEA34C00212046F3
:1015180001F072FE0421204601F06EFE01229F496F
:101528009F4802F032FA01229E499F4802F02DFAA4
:1015380000269E4F00240025CDE90445CDE902454B
:101548004FF00008DFF86892CDE9008932463B4643
:10155800984802F066FBCDE90445CDE90245CDE99E
:10156800008932463B46944802F05BFBCDE90445CE
:10157800CDE90245CDE9004581A3D3E900238F4891
:1015880002F04FFB00238E4A13708E4A137024E03A
:10159800FF2B22D18C4E012434708C48014602F076
:1015A80069FA002002F0C6FA204602F075FA002512
:1015B8002946284602F05EFA34704FF4FA7000F0BB
:1015C800C7FC002002F068FA2946284602F052FAC1
:1015D80034704FF4FA7000F0BBFC794B1B78062B83
:1015E800D6D8062BF9D8DFE803F004466A80C0177E
:1015F8002900042002F09EFA0020014602F03AFA7F
:1016080002F01EFB0028E8D17048014602F032FAC9
:101618006B4B05221A70E0E7002002F08BFA6C4B46
:101628001B78002BD9D0684B01221A704EF6602027
:1016380002F016FA624B06221A70CEE7022002F078
:1016480079FA0020014602F015FA564B1B78702BE8
:10165800C3D1022002F020FA5B4D01242C70002037
:10166800014602F007FA642000F072FC00232B7098
:10167800534B1C70B1E7002002F05CFA5348014656
:1016880002F0F8F9534B1B785BB9534B1B78002BCE
:10169800A3D047F6320002F0E3F9494B02221A7050
:1016A8009BE749F6404002F0DBF94C4B187800F014
:1016B800010002F0F1F9444B01221A70E5E701201C
:1016C80002F038FA404B01221A700020014602F05D
:1016D800D1F902F0B5FA01287FF47FAF3A4B002226
:1016E8001A70374B03221A7077E7002002F022FAAB
:1016F800344B1B78012B21D0032B31D063B1364BEF
:101708001B78002B3FF469AF47F6320002F0A8F9C6
:101718002B4B00221A7060E7022002F0BDF900206E
:10172800014602F0A7F9642000F012FC27480146A0
:1017380002F0A0F9234B01221A70E0E7254B1B7831
:10174800002BDCD049F6404002F08AF9234B187888
:1017580000F0010002F0A0F91A4B03221A70CEE73C
:101768001A48014602F086F9C9E7164B1B78032B85
:1017780049D8DFE803F03555637900BFAFF300803F
:10178800333333333333D33F2005002000000020A8
:101798009004002068050020D80400208E04002052
:1017A800B00500208C040020F405002000406540AE
:1017B80000003940E006002058070020800600207D
:1017C80038070020B0070020D90600200000F041AB
:1017D800DB060020DA060020D80600208D04002051
:1017E800022002F059F90020014602F043F90124D1
:1017F800204B1C70642000F0ABFB1F48014602F030
:1018080039F91E4B1C701E4B1B78002B3FF4E5AEBC
:1018180047F6320002F024F91A4B00221A70DCE66F
:101828004CF2503002F01CF9174B187800F0010008
:1018380002F032F9114B02221A70E4E70E48014611
:1018480002F018F9114B1B78002BDCD049F6404008
:1018580002F006F90C4B1878C0F3400002F01CF9AE
:10186800064B03221A70CEE70348014602F002F93C
:10187800C9E700BFD90600200000F041B0070020EA
:10188800D8060020380700208D040020DA06002042
:1018980082B0002100910B4B5A6C42F480425A648A
:1018A8005A6C02F480420092009A01911A6C42F03C
:1018B80080521A641B6C03F080530193019B02B0A1
:1018C800704700BF00380240FEE7FEE7FEE7FEE78C
:1018D800FEE770477047704708B500F027FB08BD62
:1018E80008B5024801F017F908BD00BF200500201F
:1018F80008B5024801F0EEFE08BD00BFB0050020A3
:1019080008B5024801F0E6FE08BD00BFF405002056
:101918007047000000B58DB02422002103A802F012
:101928005DFC00230193029311484FF0804202604E
:10193800436083604FF0FF32C2600361836101231B
:1019480003930593099303A901F048FA50B90023BA
:101958000193029301A9064801F0B4FC28B90DB01F
:101968005DF804FBFFF74AFDF1E7FFF747FDF6E7EF
:10197800D804002000B587B0002302930393049392
:101988000593009301931548154A0260532242605B
:10199800836040F2E732C2600361836101F0C6F9F7
:1019A80090B94FF48053029302A90C4801F01EFB32
:1019B80068B90023009301936946084801F082FC46
:1019C80040B907B05DF804FBFFF718FDE9E7FFF73A
:1019D80015FDEEE7FFF712FDF3E700BF2005002035
:1019E8000004004000B58DB02422002103A802F0B5
:1019F800F5FB0023019302931148124A02604360E9
:101A080083604FF0FF32C260036183610123039357
:101A18000593099303A901F0E1F950B90023019353
:101A2800029301A9064801F04DFC28B90DB05DF8F4
:101A380004FBFFF7E3FCF1E7FFF7E0FCF6E700BF84
:101A480068050020000C004000B583B00368154A03
:101A5800934205D0144A93420FD003B05DF804FBBB
:101A680000230093114B5A6C42F001025A645B6CDC
:101A780003F001030093009BEFE7002201920B4B58
:101A8800196C41F0020119641B6C03F00203019305
:101A9800019B03211D2000F081FA1D2000F0B6FAF9
:101AA800DBE700BF000001400004004000380240AE
:101AB80070B58AB00023059306930793089309939A
:101AC8000368B3F1804F04D02D4A934237D00AB04F
:101AD80070BD0024009403F50E331A6C42F0010225
:101AE8001A641A6C02F001020092009A01941A6BAF
:101AF80042F001021A631A6B02F001020192019A84
:101B080002941A6B42F002021A631B6B03F0020381
:101B18000293029B20230593022606960125099528
:101B280005A9184800F0F2FA0823059306960794C9
:101B38000894099505A9144800F0E8FAC7E70021B8
:101B48000391124B1A6C42F008021A641A6C02F0E4
:101B580008020392039A04911A6B42F001021A6375
:101B68001B6B03F001030493049B032305930223D7
:101B78000693099305A9034800F0C8FAA7E700BF30
:101B8800000C0040000002400004024000380240FF
:101B980000B587B000230193029303930493059340
:101BA80002680F4B9A4202D007B05DF804FB00238D
:101BB80000930C4B1A6B42F001021A631B6B03F083
:101BC80001030093009B4FF4A06301930223029347
:101BD8000123059301A9044800F098FAE4E700BF3F
:101BE80000000140003802400000024010B596B0E5
:101BF8000024129413941494159410941194099435
:101C08000A940B940C940D940E940F942022214660
:101C180001A802F0E3FA3148314B03604460846064
:101C280042F2CF03C36004614461846101F07EF82D
:101C380000283ED14FF48053129312A9274801F08F
:101C4800D5F9002838D1254801F09CF8002836D16C
:101C580000231093119310A9204801F033FB0028AA
:101C680030D16023099300220A920B920C920D92B4
:101C78000E920F9209A9194801F03EF928BB0822D3
:101C880009A9164801F038F910BB00230193029303
:101C98000393049305934FF400520692089301A905
:101CA8000E4801F04DFBB0B90C48FFF771FF16B0B4
:101CB80010BDFFF7A3FBBDE7FFF7A0FBC3E7FFF7E6
:101CC8009DFBC5E7FFF79AFBCBE7FFF797FBD6E746
:101CD800FFF794FBD9E7FFF791FBE5E790040020B5
:101CE8000000014008B50A480A4B03604FF4E1338D
:101CF800436000238360C36003610C2242618361F7
:101D0800C36101F02FFC00B908BDFFF777FBFBE7C3
:101D1800B00500200010014008B50A480A4B0360CE
:101D28004FF4E133436000238360C36003610C22F6
:101D380042618361C36101F015FC00B908BDFFF77A
:101D48005DFBFBE7F405002000440040F0B58BB0D4
:101D58000023059306930793089309930368394A68
:101D6800934204D0384A934241D00BB0F0BD0024CE
:101D78000094364B5A6C42F010025A645A6C02F0C6
:101D880010020092009A01941A6B42F001021A6341
:101D98001A6B02F001020192019A02941A6B42F046
:101DA80002021A631B6B03F002030293029B4FF4B7
:101DB80000730593022506950327089707260996B9
:101DC80005A9234800F0A2F98023059306950794F6
:101DD8000897099605A91F4800F098F92246294650
:101DE800252000F0DBF8252000F010F9BDE70024DD
:101DF8000394164B1A6C42F400321A641A6C02F4FB
:101E080000320392039A04941A6B42F001021A6397
:101E18001B6B03F001030493049B0C23059302231B
:101E28000693032308930723099305A9084800F09C
:101E38006DF922460121262000F0B0F8262000F096
:101E4800E5F892E7001001400044004000380240E5
:101E58000000024000040240DFF834D00D480E496B
:101E68000E4A002302E0D458C4500433C4188C42EC
:101E7800F9D30B4A0B4C002301E013600432A24251
:101E8800FBD3FFF745FD02F085F9FFF70DFB70471F
:101E980000000120000000206C040020B04300086E
:101EA80070040020C8070020FEE7000010B50446B3
:101EB8000E4B18784FF47A73B3FBF0F30C4A1068A2
:101EC800B0FBF3F000F0B0F868B90F2C01D901208D
:101ED8000AE0002221464FF0FF3000F05FF8054B82
:101EE8001C60002000E0012010BD00BF340000206D
:101EF800300000203800002008B50B4B1A6842F467
:101F080000721A601A6842F480621A601A6842F411
:101F180080721A60032000F02FF80020FFF7C6FF38
:101F2800FFF7B6FC002008BD003C0240034A1168D8
:101F3800034B1B780B441360704700BF3806002022
:101F480034000020014B1868704700BF3806002095
:101F580038B50446FFF7F6FF0546B4F1FF3F02D057
:101F6800044B1B781C44FFF7EDFF401BA042FAD33B
:101F780038BD00BF34000020074AD36823F4E0636B
:101F88001B041B0C000200F4E060034343F0BF6332
:101F980043F40033D360704700ED00E000B5194BFF
:101FA800DB68C3F30223C3F1070CBCF1040F28BF9D
:101FB8004FF0040C03F1040EBEF1060F18D9033BD1
:101FC8004FF0FF3E0EFA0CFC21EA0C0199400EFA84
:101FD80003F322EA0303194300280BDB0901C9B202
:101FE80000F1604000F5614080F800135DF804FBE3
:101FF8000023E5E700F00F000901C9B2024B1954AC
:10200800F4E700BF00ED00E014ED00E0002807DB76
:1020180000F01F02400901239340024A42F8203091
:10202800704700BF00E100E00138B0F1807F0BD2BB
:102038004FF0E0235861054AF02182F82310002070
:10204800986107221A6170470120704700ED00E08F
:1020580070B50446866DFFF775FF94F83530DBB22E
:10206800022B06D080236365002384F834300120D6
:1020780070BD05462268136823F0160313602268B2
:10208800536923F080035361236CE3B1226813681A
:1020980023F0080313602268136823F00103136018
:1020A80023681B6813F0010F11D0FFF74BFF431B88
:1020B800052BF5D920236365032084F83500002318
:1020C80084F83430D4E7A36C002BDFD1E3E7E26D6A
:1020D8003F239340B360012384F83530002084F80F
:1020E8003400C5E790F83530DBB2022B03D08023EB
:1020F800436501207047052380F83530026813686E
:1021080023F00103136000207047000000230F2B09
:1021180000F2D28070B582B060E085685E0003246A
:10212800B44025EA0405CC68B4402C438460456873
:1021380025EA02054C68C4F300129A402A4342601B
:102148005AE0DC08083450F8246003F007029500D0
:102158000F22AA4026EA020E0A69AA4042EA0E02A3
:1021680040F824205CE0042200E0002202FA0EF28B
:102178002A430234514D45F82420514A14686FEA25
:102188000C0224EA0C054E6816F4803F01D04CEA94
:1021980004054B4C2560646802EA04054E6816F491
:1021A800003F01D04CEA0405454C6560A46802EA8A
:1021B80004054E6816F4801F01D04CEA0405404C13
:1021C800A560E46822404D6815F4001F01D04CEA70
:1021D80004023B4CE26001330F2B6BD801229A407A
:1021E8000C6804EA020C32EA0404F4D14C6804F0E6
:1021F8000304013C012C90D94A6802F00302032A27
:1022080009D0C4685D000322AA4024EA02048A684F
:10221800AA402243C2604A6802F00302022A90D010
:1022280004684FEA430E032202FA0EF224EA02047B
:102238004A6802F0030202FA0EF2224302604A6878
:1022480012F4403FC7D0002201921E4A546C44F455
:1022580080445464526C02F480420192019A9C08B2
:10226800A51C164A52F8255003F003024FEA820EC5
:102278000F2202FA0EF225EA0205134A90423FF4B1
:1022880074AF02F5806290420ED002F580629042EF
:102298000CD002F5806290420AD002F5806290422A
:1022A8003FF461AF072261E701225FE702225DE7A1
:1022B80003225BE702B070BD704700BF00380140E1
:1022C800003C014000380240000002400369194206
:1022D80001D001207047002070470AB18161704722
:1022E8000904816170470000002800F0E08170B5A2
:1022F80082B00446036813F0010F3BD09F4B9B68E4
:1023080003F00C03042B2CD09C4B9B6803F00C03AC
:10231800082B21D06368B3F5803F4FD0B3F5A02FC9
:1023280052D0964B1A6822F480321A601A6822F446
:1023380080221A606368002B50D0FFF703FE054621
:102348008E4B1B6813F4003F14D1FFF7FBFD401BB5
:102358006428F5D90320B1E1884B5B6813F4800F3A
:10236800D8D0864B1B6813F4003F03D06368002B5A
:1023780000F09F81236813F0020F54D07F4B9B68B5
:1023880013F00C0F3ED07D4B9B6803F00C03082B19
:1023980033D0E368002B68D0794B01221A60FFF72D
:1023A800D1FD0546754B1B6813F0020F54D1FFF79A
:1023B800C9FD401B0228F5D903207FE16F4A136845
:1023C80043F480331360B5E76C4B1A6842F48022FB
:1023D8001A601A6842F480321A60ABE7FFF7B2FD60
:1023E8000546664B1B6813F4003FC3D0FFF7AAFDF0
:1023F800401B6428F5D9032060E1604B5B6813F447
:10240800800FC6D15D4B1B6813F0020F03D0E36841
:10241800012B40F05081594A136823F0F8032169D1
:1024280043EAC1031360236813F0080F42D06369BD
:102438006BB3534B0122C3F8802EFFF783FD05468B
:102448004E4B5B6F13F0020F34D1FFF77BFD401B3F
:102458000228F5D9032031E1484A136823F0F8032C
:10246800216943EAC1031360DDE7454B00221A6086
:10247800FFF768FD0546414B1B6813F0020FD2D0E9
:10248800FFF760FD401B0228F5D9032016E13C4BFD
:102498000022C3F8802EFFF755FD0546374B5B6FCA
:1024A80013F0020F06D0FFF74DFD401B0228F5D9A7
:1024B800032003E1236813F0040F77D02F4B1B6C24
:1024C80013F0805F33D1002301932C4B1A6C42F038
:1024D80080521A641B6C03F080530193019B012501
:1024E800284B1B6813F4807F23D0A368012B34D0BA
:1024F800052B38D0214B1A6F22F001021A671A6F88
:1025080022F004021A67A368002B3DD0FFF71AFDDA
:1025180006461A4B1B6F13F0020F46D1FFF712FD48
:10252800801B41F288339842F3D90320C6E0002586
:10253800D6E7144A136843F480731360FFF702FD6B
:102548000646104B1B6813F4807FCED1FFF7FAFCC8
:10255800801B0228F5D90320B0E0084A136F43F026
:1025680001031367CFE7054B1A6F42F004021A679D
:102578001A6F42F001021A67C5E700BF003802402F
:102588000000474200700040FFF7DCFC0646524B53
:102598001B6F13F0020F08D0FFF7D4FC801B41F229
:1025A80088339842F3D9032088E0EDB9A369002B5A
:1025B80000F08380484A926802F00C02082A51D041
:1025C800022B17D0454B00221A66FFF7BBFC0446C6
:1025D800414B1B6813F0007F42D0FFF7B3FC001B90
:1025E8000228F5D9032069E03B4A136C23F0805395
:1025F8001364DBE7394B00221A66FFF7A3FC054694
:10260800354B1B6813F0007F06D0FFF79BFC401B7F
:102618000228F5D9032051E0E369226A1343626A6C
:1026280043EA8213A26A5208013A43EA0243E26A81
:1026380043EA0263284A5360284B01221A66FFF7CF
:1026480081FC0446244B1B6813F0007F06D1FFF77A
:1026580079FC001B0228F5D903202FE000202DE08B
:1026680000202BE0012B2BD01B4B5B6803F480016F
:10267800E269914226D103F03F02216A8A4223D1BE
:10268800616A47F6C0721A40B2EB811F1ED103F48B
:102698004031A26A5208013AB1EB024F18D103F057
:1026A8007063E26AB3EB026F14D1002006E00120E8
:1026B8007047012002E0012000E0002002B070BD58
:1026C8000120FBE70120F9E70120F7E70120F5E702
:1026D8000120F3E70120F1E70038024000004742FB
:1026E80008B5254B9B6803F00C03042B3FD0082B3F
:1026F8003FD1214B5A6802F03F025B6813F4800F08
:1027080012D01D4B5968C1F388111C480023A1FB46
:102718000001FEF78FFC184B5B68C3F301430133DC
:102728005B00B0FBF3F025E0134B5968C1F3881C3C
:102738004FEA4C11B1EB0C006EEB0E0E4FEA8E1304
:1027480043EA90638101091A63EB0E03DB0043EA55
:102758005173C90011EB0C0C43F1000399020023DB
:102768004FEA8C2041EA9C51FEF764FCD3E703480A
:1027780000E0034808BD00BF0038024040787D01F2
:102788000024F400002800F09B8070B50D46044634
:102798004F4B1B6803F007038B4208D2CBB24C4A5D
:1027A8001370136803F007038B4240F08B80236893
:1027B80013F0020F17D013F0040F04D0454A9368A2
:1027C80043F4E0539360236813F0080F04D0414AA0
:1027D800936843F4604393603E4A936823F0F003A0
:1027E800A1680B439360236813F0010F32D063682C
:1027F800012B21D09A1E012A25D9364A126812F0D7
:10280800020F61D033498A6822F0030213438B60B8
:10281800FFF798FB06462F4B9B6803F00C03626892
:10282800B3EB820F16D0FFF78DFB801B41F2883384
:102838009842F0D9032042E0264A126812F4003F79
:10284800E0D101203BE0234A126812F0007FD9D181
:10285800012034E01E4B1B6803F00703AB4207D985
:10286800EAB21B4B1A701B6803F00703AB422DD169
:10287800236813F0040F06D0164A936823F4E05334
:10288800E1680B439360236813F0080F07D0114ADF
:10289800936823F46043216943EAC1039360FFF717
:1028A8001FFF0C4B9B68C3F303130B4AD35CD84040
:1028B8000A4B18600A4B1868FFF7F8FA002070BD39
:1028C800012070470120FAE70120F8E70120F6E728
:1028D800003C0240003802408043000830000020DD
:1028E80038000020014B1868704700BF30000020F6
:1028F80008B5FFF7F7FF044B9B68C3F38223034A2D
:10290800D35CD84008BD00BF00380240904300089F
:1029180008B5FFF7E7FF044B9B68C3F34233034A4C
:10292800D35CD84008BD00BF00380240904300087F
:1029380070B4036A23F001030362036A466882697C
:1029480022F073020C6844EA020523F002028B6845
:1029580013430D4CA04209D00B4CA0420DD0466049
:1029680085614A684263036270BC704723F00803BC
:10297800CA68134323F00403EEE726F440764A6955
:1029880032438E691643EAE70000014030B4036A17
:1029980023F480730362036A4568C26922F07302F4
:1029A8000C68224323F400738C6843EA04230F4C19
:1029B800A04209D00D4CA0420ED04560C2614A68C1
:1029C800C263036230BC704723F40063CC6843EAF7
:1029D800042323F48063EDE725F440554C6945EA68
:1029E80004158C6945EA0415E7E700BF00000140BB
:1029F80030B4036A23F480530362036A4468C269EB
:102A080022F4E6420D6842EA052223F400538D6859
:102A180043EA0533074DA84206D04460C2614A68BC
:102A28000264036230BC704724F480444D6944EA70
:102A38008514F2E70000014010B4036A046A24F028
:102A480001040462846924F0F00C4CEA021223F0B9
:102A58000A030B438261036210BC704710B4046A16
:102A680024F0100404628469036A24F4704C4CEA6C
:102A7800023223F0A00343EA01138261036210BC0F
:102A88007047836823F070030B4343F007038360A8
:102A98007047000090F83D30DBB2012B2FD10223A4
:102AA80080F83D300268D36843F00103D3600368BF
:102AB800154A934218D0B3F1804F15D0A2F57C4245
:102AC800934211D002F5806293420DD002F58062E4
:102AD800934209D002F59A32934205D01A6842F01F
:102AE80001021A60002070479A6802F00702062A5D
:102AF80007D01A6842F001021A60002070470120CE
:102B080070470020704700BF0000014070477047C1
:102B180070477047704710B5044603681A6912F089
:102B2800020F11D0DA6812F0020F0DD06FF0020216
:102B38001A610123037703689B6913F0030F70D0B0
:102B4800FFF7E6FF0023237723681A6912F0040FC2
:102B580012D0DA6812F0040F0ED06FF004021A6176
:102B68000223237723689B6913F4407F5FD02046B4
:102B7800FFF7CEFF0023237723681A6912F0080FA6
:102B880012D0DA6812F0080F0ED06FF008021A613E
:102B9800042323772368DB6913F0030F4ED0204604
:102BA800FFF7B6FF0023237723681A6912F0100F86
:102BB80012D0DA6812F0100F0ED06FF010021A61FE
:102BC800082323772368DB6913F4407F3DD0204630
:102BD800FFF79EFF0023237723681A6912F0010F7D
:102BE80003D0DA6812F0010F36D123681A6912F09F
:102BF800800F03D0DA6812F0800F34D123681A6985
:102C080012F0400F03D0DA6812F0400F32D1236877
:102C18001A6912F0200F03D0DA6812F0200F30D1B1
:102C280010BDFFF774FF2046FFF773FF8AE72046C1
:102C3800FFF76DFF2046FFF76CFF9BE72046FFF785
:102C480066FF2046FFF765FFACE72046FFF75FFF0A
:102C58002046FFF75EFFBDE76FF001021A612046CC
:102C680001F032F9C1E76FF080021A61204600F0E6
:102C780091FBC3E76FF040021A612046FFF74AFF55
:102C8800C5E76FF020021A61204600F082FBC7E713
:102C98000368254A90420ED0B0F1804F0BD0A2F5C0
:102CA8007C42904207D002F58062904203D002F540
:102CB8008062904203D123F070034A6813431A4A92
:102CC80090421AD0B0F1804F17D0A2F57C429042C2
:102CD80013D002F5806290420FD002F580629042D4
:102CE8000BD002F59A32904207D002F580629042EA
:102CF80003D002F58062904203D123F44073CA687E
:102D0800134323F080034A69134303608B68C3624B
:102D18000B688362044B984202D0012343617047D9
:102D28000B690363F9E700BF0000014040B310B529
:102D3800044690F83D30F3B1022384F83D30214633
:102D480051F8040BFFF7A4FF012384F8463084F8F8
:102D58003E3084F83F3084F8403084F8413084F8BD
:102D6800423084F8433084F8443084F8453084F89D
:102D78003D30002010BD80F83C30FEF765FEDBE7F3
:102D88000120704740B310B5044690F83D30F3B1C8
:102D9800022384F83D30214651F8040BFFF778FFF1
:102DA800012384F8463084F83E3084F83F3084F8B4
:102DB800403084F8413084F8423084F8433084F855
:102DC800443084F8453084F83D30002010BD80F848
:102DD8003C30FFF79BFEDBE701207047002857D007
:102DE80070B50D46044690F83D30002B4BD00223B9
:102DF80084F83D302268936823F4804323F0070366
:102E08009360214651F8040BFFF742FF21688A6856
:102E18008B690E6A2868104323F4407C2CF0030C5D
:102E2800AA68AB6942EA032343EA0C0323F47C4310
:102E380023F0FC03EA69D5F80CC04CEA022C4CEAF2
:102E4800030C2A6A13032A6943EA021343EA0C03B0
:102E580026F0AA066A686D6942EA0512324388605C
:102E680021688B6123681A62012384F8463084F84C
:102E78003E3084F83F3084F8423084F8433084F898
:102E88003D30002070BD80F83C30FEF711FEAEE703
:102E98000120704730B4036A23F010030362036A09
:102EA8004468826922F4E6420D6842EA052223F06A
:102EB80020038D6843EA05130E4DA84209D00D4D35
:102EC800A8420ED0446082614A688263036230BCC3
:102ED800704723F08003CD6843EA051323F04003CD
:102EE800EDE724F440644D6944EA85048D6944EAB9
:102EF8008504E7E70000014038B590F83C30012B25
:102F080066D004460D46012380F83C300C2A5AD876
:102F1800DFE802F0075959591B595959305959597D
:102F280044000068FFF704FD2268936943F0080332
:102F380093612268936923F004039361226893697B
:102F480029690B43936100203EE00068FFF7A2FF68
:102F58002268936943F4006393612268936923F4B8
:102F68008063936122689369296943EA0123936125
:102F7800002029E00068FFF709FD2268D36943F0C3
:102F88000803D3612268D36923F00403D36122685C
:102F9800D36929690B43D361002015E00068FFF766
:102FA80027FD2268D36943F40063D3612268D3699B
:102FB80023F48063D3612268D369296943EA012332
:102FC800D361002000E00120002384F83C3038BDA4
:102FD8000220FCE710B4846824F47F4C42EA032200
:102FE8000A4342EA0C02826010BC704790F83C30F9
:102FF800012B78D010B50446012380F83C30022319
:1030080080F83D300268936823F47F4323F0770308
:1030180093600B68602B4CD029D8402B54D00CD926
:10302800502B22D1CA6849680068FFF705FD502176
:103038002068FFF726FD002005E0202B0DD009D9D8
:10304800302B0AD00120012384F83D30002384F876
:103058003C3010BD0BB1102B05D119462068FFF785
:1030680010FD0020EFE70120EDE70120EBE7B3F5C5
:10307800805F34D0B3F5005F0CD1CB684A688968AB
:103088000068FFF7A7FF2268936843F480439360C2
:103098000020D8E7702B24D1CB684A68896800687B
:1030A800FFF798FF2268936843F077039360002046
:1030B800C9E7CA6849680068FFF7D0FC6021206842
:1030C800FFF7DFFC0020BEE7CA6849680068FFF721
:1030D800B3FC40212068FFF7D4FC0020B3E70020B0
:1030E800B1E70120AFE70220704701F01F0101237B
:1030F80003FA01FC036A23EA0C030362036A02FA77
:1031080001F10B430362704710B5044608460029D5
:1031180032D194F83E30DBB2013B18BF0123002BBB
:1031280063D1002841D1022384F83E3001220146B0
:103138002068FFF7DAFF23682E4A934245D02368B8
:103148002C4A934246D0B3F1804F43D0A2F57C423B
:1031580093423FD002F5806293423BD002F58062F1
:10316800934237D002F59A32934233D01A6842F02C
:1031780001021A60002037E0042908D008290DD080
:1031880094F84130DBB2013B18BF0123C7E794F83C
:103198003F30DBB2013B18BF0123C0E794F8403051
:1031A800DBB2013B18BF0123B9E7042805D0082882
:1031B80007D0022384F84130B8E7022384F83F306F
:1031C800B4E7022384F84030B0E75A6C42F4004276
:1031D8005A64B4E79A6802F00702062A07D01A6808
:1031E80042F001021A60002010BD0120FCE7002017
:1031F800FAE700BF0000014038B5044690F83E00E9
:10320800C0B294F83F3094F84220D2B294F843C048
:103218000D46B1B9012849D1012A48D1022384F8C1
:103228003E3084F842307DB3042D39D0012200218C
:103238002068FFF75AFF012204212068FFF755FF95
:1032480027E0DBB25FFA8CFC042912D0012833D1C5
:10325800012B2CD1012A31D1BCF1010F30D102232D
:1032680084F83E3084F83F3084F8423084F84330A4
:10327800D9E7012B1CD1BCF1010F1BD1022384F823
:103288003F3084F84330CEE7012200212068FFF761
:103298002CFF2268136843F001031360002006E046
:1032A800012204212068FFF720FFF2E7012038BD42
:1032B8000120FCE71846FAE70120F8E71846F6E788
:1032C8001046F4E790F83C30012B34D010B40123B9
:1032D80080F83C30022380F83D3003685A689C68C7
:1032E80022F0700C0A6842EA0C025A600368134A1A
:1032F800934212D0B3F1804F0FD0A2F57C42934293
:103308000BD002F58062934207D002F580629342A7
:1033180003D002F59A32934204D124F080044A681B
:1033280014439C60012380F83D30002380F83C3032
:10333800184610BC70470220704700BF00000140CB
:1033480090F83C30012B22D0012380F83C30CB6828
:1033580023F440738A68134323F480634A68134351
:1033680023F400630A68134323F480530A69134360
:1033780023F400534A69134323F48043CA6913436F
:1033880002685364002380F83C30184670470220D6
:10339800704770477047026802F10C0353E8003F1A
:1033A80023F490730C3242E800310029F3D102680B
:1033B80002F1140353E8003F23F00103143242E8FA
:1033C80000310029F3D1036B012B05D0202380F8AD
:1033D8003E30002303637047026802F10C0353E890
:1033E800003F23F010030C3242E800310029F3D1EA
:1033F800ECE790F83D30DBB2212B01D0022070477A
:103408008368B3F5805F17D0036A5A1C02621A7882
:1034180003685A60C38C9BB2013B9BB2C3844BB90F
:103428000268D36823F08003D3600268D36843F04E
:103438004003D360002070470369002BE4D1036A7E
:103448001B880268C3F308035360036A02330362EC
:10345800E0E7000038B504460268136923F44053D6
:10346800C1680B43136183680269134342691343BC
:10347800C2691A430168CB6823F4164323F00C038E
:103488001343CB600268536923F4407381690B438B
:1034980053610368314A934206D002F58062934231
:1034A80002D0FFF725FA01E0FFF732FAE369B3F536
:1034B800004F29D00021031849411B1841F1000190
:1034C800C90041EA5371DB00181863684FEA8302A8
:1034D8004FEA937341F10001FDF7ACFD204DA5FBC8
:1034E80000325109642303FB11031B013233A5FB8E
:1034F80003235B0903F0F00202EB011203F00F0350
:10350800216813448B6038BD0023021843EB030184
:10351800121841F10001C90041EA5271D200101895
:1035280041F10001626892185B41FDF783FD0C4D83
:10353800A5FB00325109642303FB1103DB0032337E
:10354800A5FB03235B095A0002F4F87202EB01128F
:1035580003F00703216813448B60D4E7001001408F
:103568001F85EB5158B310B5044690F83D300BB3A6
:10357800242384F83D302268D36823F40053D360B1
:103588002046FFF767FF2268136923F4904313610D
:103598002268536923F02A0353612268D36843F4ED
:1035A8000053D36000202064202384F83D3084F841
:1035B8003E3010BD80F83C30FEF7C8FBD8E701204C
:1035C8007047704708B50168CA6822F04002CA60AF
:1035D800202280F83D20FFF7F4FF002008BD704747
:1035E80008B5806B0023C385C384FFF7F8FF08BDC7
:1035F800704790F83E30DBB2222B67D18368B3F571
:10360800805F4DD0826AB3F5805F04D0002B54D11F
:103618000369002B51D103685B681370836A013317
:103628008362C38D9BB2013B9BB2C385002B4FD1F4
:1036380000B583B00268D36823F02003D360026822
:10364800D36823F48073D3600268536923F00103BD
:103658005361202380F83E30036B012B33D10023C4
:103668000363026802F10C0353E8003F23F01003E0
:103678000C3242E800310029F3D103681A6812F0CD
:10368800100F06D0002201921A6801925B6801931C
:10369800019B818DFFF7ACFF002003B05DF804FBB0
:1036A8000269002AAED1826A03685B68C3F3080323
:1036B8001380836A02338362B3E703685B6803F0AD
:1036C8007F031370AAE700F0C5FAE5E70220704708
:1036D8000020704730B583B0044602681368D0688C
:1036E800516913F00F0505D113F0200F02D010F027
:1036F800200F19D12DB111F0010119D110F4907FCB
:1037080016D1216B01297DD013F0800F03D010F062
:10371800800F40F0158113F0400F03D010F0400FD8
:1037280040F0128103B030BD2046FFF762FFF9E791
:1037380013F0010F06D010F4807F03D0226C42F002
:103748000102226413F0040F04D019B1226C42F074
:103758000202226413F0020F04D019B1226C42F065
:103768000402226413F0080F07D010F0200F00D1D4
:1037780019B1226C42F008022264226C002AD1D0CE
:1037880013F0200F02D010F0200F29D123685B69B5
:1037980003F04003226C12F0080F00D163B32046F7
:1037A800FFF7F9FD23685B6913F0400F20D022680A
:1037B80002F1140353E8003F23F04003143242E8B7
:1037C80000310029F3D1A36B73B1614A1A65A06B6C
:1037D800FEF788FC0028A5D0A06B036D9847A1E7E9
:1037E8002046FFF706FFD1E72046FFF7F8FE99E7E6
:1037F8002046FFF7F4FE95E72046FFF7F0FE00238A
:1038080023648FE713F0100F3FF47EAF10F0100F12
:103818003FF47AAF0023019313680193536801932F
:10382800019B536913F0400F50D0A26B13685B687B
:103838009BB2002B3FF476AFA18D99427FF672AF11
:10384800E385D369B3F5807F37D0226802F10C0392
:1038580053E8003F23F480730C3242E8003100291A
:10386800F3D1226802F1140353E8003F23F0010367
:10387800143242E800310029F3D1226802F114031E
:1038880053E8003F23F04003143242E80031002996
:10389800F3D1202384F83E3000232363226802F109
:1038A8000C0353E8003F23F010030C3242E80031C8
:1038B8000029F3D1A06BFEF7CBFBA18DE38D9BB262
:1038C800C91A89B22046FFF793FE2BE7A18DE38D35
:1038D8009BB2C91A89B2E38D9BB2002B3FF422AF89
:1038E80000293FF41FAF226802F10C0353E8003FA0
:1038F80023F490730C3242E800300028F3D1226898
:1039080002F1140353E8003F23F00103143242E8A4
:1039180000300028F3D1202384F83E3000232363AD
:10392800226802F10C0353E8003F23F010030C3225
:1039380042E800300028F3D12046FFF759FEF1E6AF
:103948002046FFF756FDEDE62046FFF73BFEE9E689
:10395800E9350008034681628285C2850020186423
:10396800222283F83E2083F83C001968CA6842F492
:103978008072CA6019684A6942F001024A611A688D
:10398800D36843F02003D360704708B590F83E3001
:10399800DBB2202B0DD171B17AB190F83C30012BFC
:1039A8000DD0012380F83C3000230363FFF7D2FFDA
:1039B80000E0022008BD0120FCE70120FAE7022010
:1039C800F8E70000014B1860704700BF3C0000207A
:1039D80038B5002400E00134092C1AD80D4B53F8EF
:1039E8002450002DF7D0288980B2FDF7E9F80A4B5A
:1039F8001968FDF731F8FDF7FDFA80B228812B89A7
:103A08009BB269888B42E6D300232B816B68984769
:103A1800E1E738BD3C0600203C0000200278024B5C
:103A280043F82200704700BF3C06002070B50646E8
:103A38000D46002406E004EB440006EB8000FFF787
:103A4800EDFF0134A542F6DC70BD000008B54FF467
:103A580000710248FEF73AFC08BD00BF00040240AE
:103A68004FF080435A6A4FF080435B6A9B1A834247
:103A7800F9D3704710B50C46FCF70EFD044BC3E9AB
:103A880000012046FCF708FD024BC3E9000110BD08
:103A9800680600207006002008B5204B01221A7025
:103AA8004FF080435A6A1E4B1A601E4B5A6A1E4BCF
:103AB8001A60012823D0022804D090B1174B0022A5
:103AC8001A7008BD19491A48FFF7D4FF4FF0804310
:103AD8005B6A134A12689B1A46F62A129342F5D972
:103AE800ECE713490020FFF7C5FF0E4B5B6A0E4A4F
:103AF80012689B1A46F62A129342F6D9DEE700218D
:103B08000B48FFF7B7FF4FF080435B6A044A12681F
:103B18009B1A46F62A129342F5D9CFE7D906002018
:103B2800DC060020000C0040500700200000F0C117
:103B38000000F04110B5044610F0020F15D0002225
:103B480080211348FEF7C9FB14F0010F13D000229F
:103B580040210F48FEF7C1FB14F0040F11D00022DA
:103B680001210C48FEF7B9FB10BD0122802108484D
:103B7800FEF7B3FBE8E7012240210548FEF7ADFB5D
:103B8800EAE7012211460348FEF7A7FBECE700BF6E
:103B980000000240000402402DE9F0478246D0E9C7
:103BA8000823D0E90C01FCF717FB04460D46CAE9C7
:103BB8000E45DAE91223FCF711FB80468946CAE96B
:103BC8001289DAE9102320462946FCF705FB064648
:103BD8000F46CAE91467CAE91045DAE90023204606
:103BE8002946FCF7B1FC04460D46DAE902234046B3
:103BF8004946FCF7A9FC02460B4620462946FCF735
:103C0800EDFA04460D46DAE9042330463946FCF756
:103C18009BFC02460B4620462946FCF7DFFABDE826
:103C2800F087C0E90023DDE90023C0E90223DDE9CC
:103C38000223C0E90423DDE90423C0E90C2370470B
:103C480008B520210248FEF741FB00B1012008BD5C
:103C580000040240F8B504460268874B9A4205D032
:103C68002268864B9A4200F09A80F8BD844D012262
:103C780029468448FFF789FE2E780A2E0AD0782E26
:103C880008D0792E15D105E07F492846FDF7A0F820
:103C98007E4B18607D4B1D684FF07E512846FDF71E
:103CA80095F90028F0D17A4B1B78782B21D0792B05
:103CB80038D0782E40D0792E4CD02D2E58D02E2E9C
:103CC8005AD0A6F13003DBB2092BC9D8714B1B6857
:103CD800002B55D06D4F6C493868FCF7C5FF054679
:103CE800A6F13000FCF76CFF2946FCF7B5FE3860FA
:103CF800B6E7694B1B687BB1684B19682846FCF727
:103D0800ABFE00F10040FCF7C7FB654BC3E90801B7
:103D18005F4B00221A70CCE7604B19682846FCF705
:103D28009BFEF0E75D4B1868FDF764F95D4B187072
:103D3800574B00221A70BCE7554B78221A700023A3
:103D4800554A1360534A13600023544A13604F4A7C
:103D5800136085E74E4B79221A7000234E4A136090
:103D68004C4A136000234D4A1360484A136077E7B2
:103D7800494B01221A60A2E7464B01221A60A0E7CC
:103D8800464F41493868FCF76FFF0546A6F13000F9
:103D9800FCF716FF2946FCF75FFE386060E7424CE7
:103DA800012221464148FFF7F0FD25780A2D26D04B
:103DB800632D24D0632D39D02D2D45D02E2D47D0FD
:103DC800A5F13003DBB2092B3FF64FAF384B1B6828
:103DD800002B41D0374E2C493068FCF745FF04468C
:103DE800A5F13000FCF7ECFE2146FCF735FE30600B
:103DF8003BE725492046FCF7EBFF2E4B18602D4B7F
:103E08001C684FF07E512046FDF7E0F80028F0D1FD
:103E1800294B1B78632BCDD1284B1868FDF7EAF89E
:103E2800274B1870244B00221A70C3E7224B6322D9
:103E38001A700023234A13601D4A136000231F4A87
:103E480013601C4A136010E71E4B01221A60B5E785
:103E5800174B01221A60B3E7184E0B493068FCF77C
:103E680003FF0446A5F13000FCF7AAFE2146FCF743
:103E7800F3FD3060F9E600BF001001400044004047
:103E88008E040020B005002000002041BC0700205F
:103E9800790600204807002040070020B8070020C6
:103EA800800600207B0600208C040020F4050020FA
:103EB80044070020C007002078060020B40700202F
:103EC8008D0400203C07002008B50268034B9A4285
:103ED80000D008BDFFF77CFDFBE700BF00040040F1
:103EE80070B505460C461646FDF77AF828B93146EE
:103EF8002846FDF757F810B13446204670BD2C46C9
:103F0800FBE700002DE9F04716461F46DFF8B4A08E
:103F18002D4CFCF74BFD52462146FFF7E1FF0546C5
:103F2800FCF7BAFA8146884630463946FCF73EFD2A
:103F380052462146FFF7D4FF0446FCF7ADFA074680
:103F48000E4600212846FDF741F8E8B101224FF45A
:103F580080711E48FEF7C1F92846FDF74BF880B27C
:103F68001B4B586300212046FDF730F8D8B10022DA
:103F780040211648FEF7B1F92046FDF73BF880B21C
:103F8800134BD863BDE8F08700224FF480710F48C7
:103F9800FEF7A3F9484608F10041FCF7E7FC80B2B8
:103FA8000B4B5863DEE7012240210848FEF795F9DC
:103FB800384606F10041FCF7D9FC80B2044BD863BF
:103FC800E0E700BF003C03C6003C03460004024093
:103FD80000000140F8B54FF080435B6A364DEB6155
:103FE800364A566A364CE661A869181AFCF742FA4E
:103FF8000022344BFCF7A8FA0022334BFCF7A4FA52
:104008000022324BFCF7CAFB00222F4BFCF7C6FB01
:1040180000222F4BFCF798FAC5E90801A069301A6D
:10402800FCF728FA0022274BFCF78EFA0022264BD1
:10403800FCF78AFA0022254BFCF7B0FB0022224B42
:10404800FCF7ACFB0022224BFCF77EFAC4E908011E
:104058002048FFF7A1FDFCF7A9FC1F4B1B7803B113
:104068000020FCF719FA06460F4602460B461B4984
:10407800D1E90001FCF7B0F80F4DC5E90C01184B68
:10408800D3E9002330463946FCF7A8F80C4CC4E9BC
:104098000C012846FFF780FD06460F462046FFF72D
:1040A8007BFD02460B4630463946FFF72BFFEB698E
:1040B800AB61E369A361F8BDE0060020000C004095
:1040C80058070020000059400000344000407F405D
:1040D8000000E03F80060020D90600206806002086
:1040E8007006002008B5094B1B7803F00101084A47
:1040F8001170C3F34101074A117003F01003064A17
:104108001370FFF7A3FC054B187008BD7B06002051
:10411800DA0600207A060020DB060020D8060020F8
:104128007047000008B5144B1B78012B00D008BD60
:10413800124B1B78002BFAD0114B1B7833B1104B64
:1041480000221A700F4B5A6A0F4B1A600D4B5B6AAC
:104158000D4A12689B1A43F619429342E7D90B4B52
:104168001B78002BE3D1054B00221A700848014642
:10417800FFF780FCDBE700BF380700207C06002043
:104188007D060020000C00404C070020D9060020C6
:104198000000F04170B50D4E0D4D761BB61006D0DF
:1041A800002455F8043B01349847A642F9D1094E3A
:1041B800094D761B00F0D4F8B61006D0002455F847
:1041C800043B01349847A642F9D170BDA4430008C6
:1041D800A4430008AC430008A4430008830730B593
:1041E80048D0541E002A3FD0CAB2034601E0013C21
:1041F8003AD303F8012B9D07F9D1032C2DD9CDB261
:1042080045EA05250F2C45EA054536D9A4F11002E3
:1042180022F00F0C03F1200EE6444FEA121C03F1C2
:10422800100242E9045542E9025510327245F8D1AC
:104238000CF1010214F00C0F03EB021204F00F0C46
:1042480013D0ACF1040323F003030433134442F8FE
:10425800045B9342FBD10CF003042CB1CAB21C449A
:1042680003F8012B9C42FBD130BD64461346002C59
:10427800F4D1F9E703461446BFE71A46A446E0E737
:10428800024B13B1024800F005B870470000000067
:10429800A9420008002301461A46184600F01AB839
:1042A80038B5084B084D5B1B9C1007D0043B1D44D8
:1042B800013C55F804399847002CF9D1BDE838403D
:1042C80000F054B8B0430008AC430008704700BF82
:1042D800704700BF2DE9F047DFF87CA00646DAF802
:1042E800000098460F469146FFF7F0FF1B4B1B68EE
:1042F800D3F8484124B365681F2D26DC5EB96B1CD2
:104308000235DAF80000636044F82570FFF7E0FF33
:104318000020BDE8F08704EB85010123C1F88890EF
:10432800D4F88821AB401A43022EC4F88821C1F87A
:104338000881E4D1D4F88C211343C4F88C31DEE72A
:1043480003F5A674C3F84841D5E7DAF80000FFF78B
:10435800BFFF4FF0FF30DCE76804002098430008F7
:10436800F8B500BFF8BC08BC9E467047F8B500BF5A
:08437800F8BC08BC9E4670472A
:104380000000000000000000010203040607080905
:0C439000000000000102030440000020B7
:08439C00D0CCFF7F01000000FE
:0843A40089420008BD01000878
:0443AC00990100086B
:1043B00000000A00DD3F00080000000001000200CC
:1043C000ED4000080000000002000A00294100083A
:1043D00000000000030002002D4100080000000062
:1043E0000024F40001000000100000000000803FE5
:1043F000000000002C03002094030020FC03002098
:1044000000000000000000000000000000000000AC
:10441000000000000000000000000000000000009C
:10442000000000000000000000000000000000008C
:10443000000000000000000000000000000000007C
:10444000000000000000000000000000000000006C
:10445000000000000000000000000000000000005C
:10446000000000000000000000000000000000004C
:10447000000000000000000000000000000000003C
:10448000000000000000000000000000000000002C
:10449000000000000000000001000000000000001B
:1044A0000E33CDAB34126DE6ECDE05000B000000E0
:1044B00000000000000000000000000000000000FC
:1044C00000000000000000000000000000000000EC
:1044D00000000000000000000000000000000000DC
:1044E00000000000000000000000000000000000CC
:0C4810000000000000000000C4070020B1
:0400000508001E6170
:00000001FF
