:020000040800F2
:100000000000012065240008F51D0008F71D000808
:10001000F91D0008FB1D0008FD1D00080000000080
:10002000000000000000000000000000FF1D0008AC
:10003000011E000800000000031E0008051E000845
:10004000B5240008B5240008B5240008B52400082C
:10005000B5240008B5240008B5240008B52400081C
:10006000B5240008B5240008B5240008B52400080C
:10007000B5240008B5240008B5240008B5240008FC
:10008000B5240008B5240008B524000800000000CD
:10009000000000000000000000000000B52400087F
:1000A000B5240008B5240008B5240008B5240008CC
:1000B000B52400080D1E0008B5240008B52400086A
:1000C000B5240008B5240008B5240008B5240008AC
:1000D000B52400081D1E0008511E00080000000085
:1000E000B5240008B5240008B5240008000000006D
:1000F000000000000000000000000000B52400081F
:1001000000000000B5240008B5240008B52400084C
:1001100000000000000000000000000000000000DF
:10012000B5240008B5240008B5240008B52400084B
:10013000B5240008000000000000000000000000DE
:10014000000000000000000000000000B5240008CE
:10015000B5240008B5240008B5240008B52400081B
:10016000B5240008B52400080000000000000000CD
:10017000000000000000000000000000000000007F
:1001800000000000B524000800000000000000008E
:04019000B52400088A
:1001C00010B5054C237833B9044B13B10448AFF391
:1001D00000800123237010BDF00900200000000002
:1001E0001CA7000808B5034B1BB103490348AFF334
:1001F000008008BD00000000F40900201CA70008D2
:1002000081F0004102E000BF83F0004330B54FEAC7
:1002100041044FEA430594EA050F08BF90EA020F34
:100220001FBF54EA000C55EA020C7FEA645C7FEAC7
:10023000655C00F0E2804FEA5454D4EB5555B8BFEA
:100240006D420CDD2C4480EA020281EA030382EA5B
:10025000000083EA010180EA020281EA0303362DED
:1002600088BF30BD11F0004F4FEA01314FF4801CC0
:100270004CEA113102D0404261EB410113F0004FD2
:100280004FEA03334CEA133302D0524263EB430389
:1002900094EA050F00F0A780A4F10104D5F1200E27
:1002A0000DDB02FA0EFC22FA05F2801841F1000182
:1002B00003FA0EF2801843FA05F359410EE0A5F156
:1002C00020050EF1200E012A03FA0EFC28BF4CF087
:1002D000020C43FA05F3C01851EBE37101F000453D
:1002E00007D54FF0000EDCF1000C7EEB00006EEB4A
:1002F0000101B1F5801F1BD3B1F5001F0CD34908D4
:100300005FEA30004FEA3C0C04F101044FEA44522A
:1003100012F5800F80F09A80BCF1004F08BF5FEAB1
:10032000500C50F1000041EB045141EA050130BD91
:100330005FEA4C0C404141EB0101013C28BFB1F5A3
:10034000801FE9D291F0000F04BF01460020B1FAEE
:1003500081F308BF2033A3F10B03B3F120020CDAC1
:100360000C3208DD02F1140CC2F10C0201FA0CF09F
:1003700021FA02F10CE002F11402D8BFC2F1200C04
:1003800001FA02F120FA0CFCDCBF41EA0C019040BA
:10039000E41AA2BF01EB0451294330BD6FEA040403
:1003A0001F3C1CDA0C340EDC04F11404C4F12002EE
:1003B00020FA04F001FA02F340EA030021FA04F300
:1003C00045EA030130BDC4F10C04C4F1200220FA57
:1003D00002F001FA04F340EA0300294630BD21FA95
:1003E00004F0294630BD94F0000F83F4801306BF5B
:1003F00081F480110134013D4EE77FEA645C18BF4F
:100400007FEA655C29D094EA050F08BF90EA020FE5
:1004100005D054EA000C04BF1946104630BD91EADD
:10042000030F1EBF0021002030BD5FEA545C05D1E0
:100430004000494128BF41F0004130BD14F580041F
:100440003CBF01F5801130BD01F0004545F0FE4193
:1004500041F470014FF0000030BD7FEA645C1ABFC8
:10046000194610467FEA655C1CBF0B46024650EAFF
:10047000013406BF52EA033591EA030F41F400212B
:1004800030BD00BF90F0000F04BF0021704730B5B1
:100490004FF4806404F132044FF000054FF0000186
:1004A00050E700BF90F0000F04BF0021704730B547
:1004B0004FF4806404F1320410F0004548BF40421C
:1004C0004FF000013EE700BF42004FEAE2014FEA71
:1004D00031014FEA02701FBF12F07F4393F07F4F4C
:1004E00081F06051704732F07F4208BF704793F04F
:1004F0007F4F04BF41F40021704730B54FF4607462
:1005000001F0004521F000411CE700BF50EA010264
:1005100008BF704730B54FF000050AE050EA01020D
:1005200008BF704730B511F0004502D5404261EB7D
:1005300041014FF4806404F132045FEA915C3FF4BE
:10054000D8AE4FF003025FEADC0C18BF03325FEA5B
:10055000DC0C18BF033202EBDC02C2F1200300FA0C
:1005600003FC20FA02F001FA03FE40EA0E0021FA31
:1005700002F11444BDE600BF70B54FF0FF0C4CF41F
:10058000E06C1CEA11541DBF1CEA135594EA0C0FD1
:1005900095EA0C0F00F0DEF82C4481EA030621EA0C
:1005A0004C5123EA4C5350EA013518BF52EA033547
:1005B00041F4801143F4801338D0A0FB02CE4FF0F9
:1005C0000005E1FB02E506F00042E0FB03E54FF029
:1005D0000006E1FB03569CF0000F18BF4EF0010E21
:1005E000A4F1FF04B6F5007F64F5407404D25FEA1D
:1005F0004E0E6D4146EB060642EAC62141EA5551D0
:100600004FEAC52040EA5E504FEACE2EB4F1FD0C11
:1006100088BFBCF5E06F1ED8BEF1004F08BF5FEA8F
:10062000500E50F1000041EB045170BD06F0004641
:1006300046EA010140EA020081EA0301B4EB5C04EE
:10064000C2BFD4EB0C0541EA045170BD41F48011E6
:100650004FF0000E013C00F3AB8014F1360FDEBF0B
:10066000002001F0004170BDC4F10004203C35DAE7
:100670000C341BDC04F11404C4F1200500FA05F36A
:1006800020FA04F001FA05F240EA020001F000420B
:1006900021F0004110EBD37021FA04F642EB060181
:1006A0005EEA430E08BF20EAD37070BDC4F10C04AB
:1006B000C4F1200500FA04F320FA05F001FA04F26F
:1006C00040EA020001F0004110EBD37041F100015B
:1006D0005EEA430E08BF20EAD37070BDC4F1200566
:1006E00000FA05F24EEA020E20FA04F301FA05F2CE
:1006F00043EA020321FA04F001F0004121FA04F276
:1007000020EA020000EBD3705EEA430E08BF20EA45
:10071000D37070BD94F0000F0FD101F0004640007F
:1007200041EB010111F4801F08BF013CF7D041EA01
:10073000060195F0000F18BF704703F00046520005
:1007400043EB030313F4801F08BF013DF7D043EAD6
:100750000603704794EA0C0F0CEA135518BF95EA8C
:100760000C0F0CD050EA410618BF52EA4306D1D113
:1007700081EA030101F000414FF0000070BD50EA32
:10078000410606BF1046194652EA430619D094EABC
:100790000C0F02D150EA013613D195EA0C0F05D1A6
:1007A00052EA03361CBF104619460AD181EA0301FA
:1007B00001F0004141F0FE4141F470014FF00000B2
:1007C00070BD41F0FE4141F4780170BD70B54FF04D
:1007D000FF0C4CF4E06C1CEA11541DBF1CEA1355CD
:1007E00094EA0C0F95EA0C0F00F0A7F8A4EB0504AF
:1007F00081EA030E52EA03354FEA013100F08880A6
:100800004FEA03334FF0805545EA131343EA12636E
:100810004FEA022245EA111545EA10654FEA002623
:100820000EF000419D4208BF964244F1FD0404F5DC
:10083000407402D25B084FEA3202B61A65EB030538
:100840005B084FEA32024FF480104FF4002CB6EBF5
:10085000020E75EB030E22BFB61A754640EA0C0075
:100860005B084FEA3202B6EB020E75EB030E22BFB5
:10087000B61A754640EA5C005B084FEA3202B6EBF6
:10088000020E75EB030E22BFB61A754640EA9C00B5
:100890005B084FEA3202B6EB020E75EB030E22BF85
:1008A000B61A754640EADC0055EA060E18D04FEA43
:1008B000051545EA16754FEA06164FEAC30343EAE3
:1008C00052734FEAC2025FEA1C1CC0D111F4801FB0
:1008D0000BD141EA00014FF000004FF0004CB6E7A9
:1008E00011F4801F04BF01430020B4F1FD0C88BF48
:1008F000BCF5E06F3FF6AFAEB5EB030C04BFB6EB53
:10090000020C5FEA500C50F1000041EB045170BD45
:100910000EF0004E4EEA113114EB5C04C2BFD4EB72
:100920000C0541EA045170BD41F480114FF0000EF6
:10093000013C90E645EA060E8DE60CEA135594EA72
:100940000C0F08BF95EA0C0F3FF43BAF94EA0C0F75
:100950000AD150EA01347FF434AF95EA0C0F7FF4EA
:1009600025AF104619462CE795EA0C0F06D152EA3E
:1009700003353FF4FDAE1046194622E750EA410622
:1009800018BF52EA43067FF4C5AE50EA41047FF433
:100990000DAF52EA43057FF4EBAE12E74FF0FF3C98
:1009A00006E000BF4FF0010C02E000BF4FF0010C69
:1009B0004DF804CD4FEA410C7FEA6C5C4FEA430CE2
:1009C00018BF7FEA6C5C1BD001B050EA410C0CBF31
:1009D00052EA430C91EA030F02BF90EA020F002093
:1009E000704710F1000F91EA030F58BF994208BFFA
:1009F00090422CBFD8176FEAE37040F001007047B7
:100A00004FEA410C7FEA6C5C02D150EA013C07D10D
:100A10004FEA430C7FEA6C5CD6D152EA033CD3D058
:100A20005DF8040B704700BF8446104662468C4652
:100A30001946634600E000BF01B5FFF7B7FF002885
:100A400048BF10F1000F01BD4DF808EDFFF7F4FFAE
:100A50000CBF012000205DF808FB00BF4DF808ED39
:100A6000FFF7EAFF34BF012000205DF808FB00BF5C
:100A70004DF808EDFFF7E0FF94BF012000205DF87E
:100A800008FB00BF4DF808EDFFF7CEFF94BF012033
:100A900000205DF808FB00BF4DF808EDFFF7C4FF2C
:100AA00034BF012000205DF808FB00BF4A0011D2CE
:100AB00012F5001211D20DD56FF47873B3EB6252B8
:100AC0000ED44FEAC12343F0004343EA505323FAC4
:100AD00002F070474FF00000704750EA013002D139
:100AE0004FF0FF3070474FF0000070474FEA41026F
:100AF000B2F1E04324BFB3F5001CDCF1FE5C0DD97C
:100B000001F0004C4FEAC0024CEA5070B2F1004FC5
:100B100040EB830008BF20F00100704711F0804FC8
:100B200021D113F13872BCBF01F00040704741F48D
:100B300080114FEA5252C2F11802C2F1200C10FA91
:100B40000CF320FA02F018BF40F001004FEAC12375
:100B50004FEAD32303FA0CFC40EA0C0023FA02F319
:100B60004FEA4303CCE77FEA625307D150EA0133EF
:100B70001EBF4FF0FE4040F44000704701F00040BF
:100B800040F0FE4040F40000704700BF80F000409D
:100B900002E000BF81F0004142001FBF5FEA410355
:100BA00092EA030F7FEA226C7FEA236C6AD04FEA55
:100BB0001262D2EB1363C1BFD2184140484041409A
:100BC000B8BF5B42192B88BF704710F0004F40F44C
:100BD000000020F07F4018BF404211F0004F41F468
:100BE000000121F07F4118BF494292EA030F3FD034
:100BF000A2F1010241FA03FC10EB0C00C3F1200347
:100C000001FA03F100F0004302D5494260EB4000D5
:100C1000B0F5000F13D3B0F1807F06D340084FEA40
:100C2000310102F10102FE2A51D2B1F1004F40EB35
:100C3000C25008BF20F0010040EA0300704749009D
:100C400040EB0000013A28BFB0F5000FEDD2B0FA3A
:100C500080FCACF1080CB2EB0C0200FA0CF0AABF5D
:100C600000EBC25052421843BCBFD04018437047FB
:100C700092F0000F81F4000106BF80F40000013201
:100C8000013BB5E74FEA41037FEA226C18BF7FEAD8
:100C9000236C21D092EA030F04D092F0000F08BF1A
:100CA0000846704790EA010F1CBF0020704712F001
:100CB0007F4F04D1400028BF40F00040704712F140
:100CC00000723CBF00F50000704700F0004343F0A5
:100CD000FE4040F4000070477FEA226216BF0846DB
:100CE0007FEA23630146420206BF5FEA412390EA9E
:100CF000010F40F4800070474FF0000304E000BF94
:100D000010F0004348BF40425FEA000C08BF704744
:100D100043F0964301464FF000001CE050EA010208
:100D200008BF70474FF000030AE000BF50EA01021D
:100D300008BF704711F0004302D5404261EB41010A
:100D40005FEA010C02BF84460146002043F0B6432F
:100D500008BFA3F18053A3F50003BCFA8CF2083A54
:100D6000A3EBC25310DB01FA02FC634400FA02FC5D
:100D7000C2F12002BCF1004F20FA02F243EB020064
:100D800008BF20F00100704702F1200201FA02FCC6
:100D9000C2F1200250EA4C0021FA02F243EB0200B9
:100DA00008BF20EADC7070474FF0FF0C1CEAD052FD
:100DB0001EBF1CEAD15392EA0C0F93EA0C0F6FD0BE
:100DC0001A4480EA010C400218BF5FEA41211ED09C
:100DD0004FF0006343EA501043EA5111A0FB013188
:100DE0000CF00040B1F5000F3EBF490041EAD3715D
:100DF0005B0040EA010062F17F02FD2A1DD8B3F1D9
:100E0000004F40EBC25008BF20F00100704790F047
:100E1000000F0CF0004C08BF49024CEA502040EA99
:100E200051207F3AC2BFD2F1FF0340EAC25070475F
:100E300040F400004FF00003013A5DDC12F1190F9D
:100E4000DCBF00F000407047C2F10002410021FA0F
:100E500002F1C2F1200200FA02FC5FEA310040F127
:100E6000000053EA4C0308BF20EADC70704792F0A0
:100E7000000F00F0004C02BF400010F4000F013AD8
:100E8000F9D040EA0C0093F0000F01F0004C02BFD3
:100E9000490011F4000F013BF9D041EA0C018FE742
:100EA0000CEAD15392EA0C0F18BF93EA0C0F0AD048
:100EB00030F0004C18BF31F0004CD8D180EA01006E
:100EC00000F00040704790F0000F17BF90F0004F07
:100ED000084691F0000F91F0004F14D092EA0C0FE9
:100EE00001D142020FD193EA0C0F03D14B0218BF7C
:100EF000084608D180EA010000F0004040F0FE40C2
:100F000040F40000704740F0FE4040F4400070475D
:100F10004FF0FF0C1CEAD0521EBF1CEAD15392EADC
:100F20000C0F93EA0C0F69D0A2EB030280EA010CCC
:100F300049024FEA402037D04FF0805343EA111165
:100F400043EA10130CF000408B4238BF5B0042F1C3
:100F50007D024FF4000C8B4224BF5B1A40EA0C0068
:100F6000B3EB510F24BFA3EB510340EA5C00B3EB9A
:100F7000910F24BFA3EB910340EA9C00B3EBD10F88
:100F800024BFA3EBD10340EADC001B0118BF5FEADA
:100F90001C1CE0D1FD2A3FF650AF8B4240EBC25003
:100FA00008BF20F0010070470CF0004C4CEA5020C4
:100FB0007F32C2BFD2F1FF0340EAC250704740F413
:100FC00000004FF00003013A37E792F0000F00F005
:100FD000004C02BF400010F4000F013AF9D040EA83
:100FE0000C0093F0000F01F0004C02BF490011F417
:100FF000000F013BF9D041EA0C0195E70CEAD1530F
:1010000092EA0C0F08D142027FF47DAF93EA0C0FF5
:101010007FF470AF084676E793EA0C0F04D14B02D9
:101020003FF44CAF08466EE730F0004C18BF31F08B
:10103000004CCAD130F000427FF45CAF31F0004385
:101040007FF43CAF5FE700BF4FF0FF3C06E000BF1E
:101050004FF0010C02E000BF4FF0010C4DF804CD41
:101060004FEA40024FEA41037FEA226C18BF7FEA51
:10107000236C11D001B052EA530C18BF90EA010F53
:1010800058BFB2EB030088BFC81738BF6FEAE170E2
:1010900018BF40F0010070477FEA226C02D15FEA7E
:1010A000402C05D17FEA236CE4D15FEA412CE1D0EA
:1010B0005DF8040B704700BF844608466146FFE7B1
:1010C0000FB5FFF7C9FF002848BF10F1000F0FBD93
:1010D0004DF808EDFFF7F4FF0CBF012000205DF88C
:1010E00008FB00BF4DF808EDFFF7EAFF34BF012011
:1010F00000205DF808FB00BF4DF808EDFFF7E0FFAA
:1011000094BF012000205DF808FB00BF4DF808EDFA
:10111000FFF7D2FF94BF012000205DF808FB00BF5D
:101120004DF808EDFFF7C8FF34BF012000205DF83F
:1011300008FB00BF42000ED2B2F1FE4F0BD34FF0BE
:101140009E03B3EB126209D44FEA002343F000433D
:1011500023FA02F070474FF00000704712F1610F60
:1011600001D1420202D14FF0FF3070474FF0000032
:10117000704700BF53B94AB9002908BF00281CBFF7
:101180004FF0FF314FF0FF3000F074B9ADF1080CB3
:101190006DE904CE00F006F8DDF804E0DDE9022395
:1011A00004B070472DE9F047089E0D460446884676
:1011B000002B4DD18A42944668D9B2FA82F252B1DC
:1011C00001FA02F3C2F1200120FA01F10CFA02FC4B
:1011D00041EA030894404FEA1C45210CB8FBF5FE98
:1011E0001FFA8CF705FB1E8341EA03430EFB07F150
:1011F00099420BD91CEB03030EF1FF3080F01E81E6
:10120000994240F21B81AEF1020E63445B1AA4B214
:10121000B3FBF5F005FB103344EA034400FB07F78A
:10122000A7420AD91CEB040400F1FF3380F00881C7
:10123000A74240F2058164440238E41B40EA0E40B4
:1012400000211EB1D4400023C6E90043BDE8F08769
:101250008B4208D9002E00F0EE800021C6E900057F
:101260000846BDE8F087B3FA83F100294AD1AB42C2
:1012700002D3824200F2F980841A65EB0303012055
:101280009846002EE2D0C6E90048DFE702B9FFDE4B
:10129000B2FA82F2002A40F09180A1EB0C054FEAED
:1012A0001C471FFA8CFE0121B5FBF7F307FB135017
:1012B000250C45EA00450EFB03F0A84208D91CEBBB
:1012C000050503F1FF3802D2A84200F2CB80434665
:1012D0002D1AA4B2B5FBF7F007FB105544EA0544FC
:1012E0000EFB00FEA64508D91CEB040400F1FF35F7
:1012F00002D2A64500F2BB802846A4EB0E0440EAC9
:1013000003409EE7C1F120078B4022FA07FC4CEA1C
:10131000030C20FA07F405FA01F31C43FD404FEAE1
:101320001C4900FA01F3B5FBF9F8200C1FFA8CFEFA
:1013300009FB185540EA054508FB0EF0A84202FAE1
:1013400001F20BD91CEB050508F1FF3A80F088800B
:10135000A84240F28580A8F1020865442D1AA4B283
:10136000B5FBF9F009FB105544EA054500FB0EFEFC
:10137000AE4508D91CEB050500F1FF346CD2AE4533
:101380006AD90238654440EA0840A0FB0294A5EB04
:101390000E05A542C846A64656D353D05EB1B3EB60
:1013A000080265EB0E0505FA07F722FA01F3CD40B6
:1013B0001F43C6E900750021BDE8F087C2F1200394
:1013C00020FA03F10CFA02FC25FA03F395400D43D1
:1013D0004FEA1C471FFA8CFEB3FBF7F107FB1130F5
:1013E0002B0C43EA004301FB0EF0984204FA02F48E
:1013F00008D91CEB030301F1FF382FD298422DD9F5
:10140000023963441B1AADB2B3FBF7F007FB10338C
:1014100045EA034500FB0EF3AB4208D91CEB05057A
:1014200000F1FF3816D2AB4214D902386544ED1AE8
:1014300040EA014138E73146304607E78646E5E6AF
:101440001846FAE64B45A9D2B9EB020864EB0C0E3C
:101450000138A3E74046EAE7204694E74146D1E752
:10146000D0467BE7023B654432E7084609E764441F
:10147000023842E7704700BF000000000000000093
:1014800001F0FF01102A2BDB10F0070F08D010F835
:10149000013B013A8B422DD010F0070F42B3F6D139
:1014A000F0B441EA012141EA014122F007047FF052
:1014B00000070023F0E80256083C85EA010586EAA9
:1014C000010685FA47F5A3FA87F586FA47F6A5FAE5
:1014D00087F68EB9EED1F0BC01F0FF0102F00702F1
:1014E00032B110F8013B013A83EA010313B1F8D19C
:1014F0000020704701387047002D06BF354603387D
:10150000073815F0010F07D1013015F4807F02BFB5
:10151000013015F4C03F0130F0BC0138704700BF06
:10152000844641EA000313F003036DD1403A41D3EE
:1015300051F8043B40F8043B51F8043B40F8043BAD
:1015400051F8043B40F8043B51F8043B40F8043B9D
:1015500051F8043B40F8043B51F8043B40F8043B8D
:1015600051F8043B40F8043B51F8043B40F8043B7D
:1015700051F8043B40F8043B51F8043B40F8043B6D
:1015800051F8043B40F8043B51F8043B40F8043B5D
:1015900051F8043B40F8043B51F8043B40F8043B4D
:1015A00051F8043B40F8043B51F8043B40F8043B3D
:1015B000403ABDD2303211D351F8043B40F8043BDD
:1015C00051F8043B40F8043B51F8043B40F8043B1D
:1015D00051F8043B40F8043B103AEDD20C3205D3ED
:1015E00051F8043B40F8043B043AF9D2043208D0E5
:1015F000D2071CBF11F8013B00F8013B01D30B8857
:1016000003806046704700BF082A13D38B078DD034
:1016100010F003038AD0C3F10403D21ADB071CBF06
:1016200011F8013B00F8013B80D331F8023B20F870
:10163000023B7BE7043AD9D3013A11F8013B00F8A9
:10164000013BF9D20B7803704B7843708B78837031
:10165000604670470000000000000000000000002D
:10166000000000000000000000000000000000007A
:10167000000000000000000000000000000000006A
:1016800090F800F06DE9024520F007016FF0000CC2
:1016900010F0070491F820F040F049804FF000046A
:1016A0006FF00700D1E9002391F840F000F1080045
:1016B00082FA4CF2A4FA8CF283FA4CF3A2FA8CF37D
:1016C0004BBBD1E9022382FA4CF200F10800A4FAE4
:1016D0008CF283FA4CF3A2FA8CF3E3B9D1E9042338
:1016E00082FA4CF200F10800A4FA8CF283FA4CF36F
:1016F000A2FA8CF37BB9D1E9062301F1200182FA29
:101700004CF200F10800A4FA8CF283FA4CF3A2FA2E
:101710008CF3002BC6D0002A04BF04301A4612BA3C
:10172000B2FA82F2FDE8024500EBD2007047D1E93F
:10173000002304F00305C4F100004FEAC50514F0CE
:10174000040F91F840F00CFA05F562EA05021CBF9F
:1017500063EA050362464FF00004A9E74FEA410C33
:101760007FEA6C5C02D150EA013C0AD14FEA430C9B
:101770007FEA6C5C02D152EA033C02D14FF00000D8
:1017800070474FF0010070474FEA410212F5001216
:1017900015D211D56FF47873B3EB625212D94FEAB8
:1017A000C12343F0004343EA505311F0004F23FAA2
:1017B00002F018BF404270474FF00000704750EAF7
:1017C000013005D111F0004008BF6FF000407047B4
:1017D0004FF00000704700BFF0B589B000240394BB
:1017E00004940594069407940094294B1A6B42F0D4
:1017F00080021A631A6B02F080020092009A019430
:101800001A6B42F001021A631A6B02F00102019294
:10181000019A02941A6B42F002021A631B6B03F0E6
:1018200002030293029B1B4F2246C021384601F05F
:1018300074F8194D224640F24111284601F06DF826
:10184000C0230393012604960594069403A9384601
:1018500000F07CFF40F24113039304960594069434
:1018600003A9284600F072FF2023039304940596F1
:1018700003A9284600F06AFF4FF400730393049411
:101880000223059303A9284600F060FF09B0F0BDCC
:1018900000380240000002400004024072B6FEE739
:1018A00000B595B03022002108A802F0F7FF002310
:1018B000039304930593069307930193204A116CB5
:1018C00041F080511164126C02F080520192019A31
:1018D00002931C4A136823F4404343F4004313600B
:1018E000136803F440430293029B012308934FF4CF
:1018F0008033099302230E934FF480020F92192232
:101900001092A822119212930423139308A801F0B5
:101910000BF880B90F230393022104910023059350
:101920004FF480520692079303A801F04BFA20B9B6
:1019300015B05DF804FBFFF7B1FFFFF7AFFF00BF85
:10194000003802400070004080B586B000F0F4FD21
:10195000FFF7A6FFFFF740FF00F012FB00F0C8FC06
:1019600000F0E0FC00F0DCFA00F042FB00F044FC88
:10197000A14801F0AFFB4FF07E5002F0F3FB0421D1
:101980009E4802F023FC9E4C0021204601F0DCFE24
:101990000821204601F0D8FE9A4C0021204601F093
:1019A0004BFF0421204601F047FF974C00212046C1
:1019B00001F042FF0421204601F03EFF012293493D
:1019C000934802F0B2FB01229249934802F0ADFB2A
:1019D0000026924F00240025CDE90445CDE90245BB
:1019E0004FF00008DFF83892CDE9008932463B46D7
:1019F0008C4802F0F6FCCDE90445CDE90245CDE97D
:101A0000008932463B46884802F0EBFCCDE90445AC
:101A1000CDE90245CDE9004575A3D3E9002383480C
:101A200002F0DFFC0023824A1370824A137024E024
:101A3000FF2B22D1804E012434708048014602F0F1
:101A4000FBFB002002F056FC204602F007FC0025BC
:101A50002946284602F0F0FB34704FF4FA7000F08B
:101A600097FD002002F0FAFB2946284602F0E4FB2D
:101A700034704FF4FA7000F08BFD6D4B1B78042B23
:101A8000D6D8042BF9D8DFE813F00500180096002B
:101A9000F1003501042002F02DFC0020014602F087
:101AA000CBFB02F0ADFC0028E7D16448014602F010
:101AB000C3FB5F4B01221A70DFE7002002F01AFC23
:101AC0005F4B1B782BBB5F4B1B7853B15E4B1B6886
:101AD0003BB901225D490A705D490A7013445A4AB4
:101AE00013605C4B1B78012B1DD0022B3FD0554B54
:101AF0001B7813B1504B01221A70574B1B78002BE7
:101B0000BBD04FF4487002F07BFB494B02221A70A5
:101B1000B3E70123514A1370514A137051480146EB
:101B200002F08AFBCFE74FF47A7002F069FB0020E5
:101B300002F094FB464B1B785BB1444B1B7883B19E
:101B4000494A137843F002031370404B00221A7085
:101B5000CDE7394B01221A703848014602F06CFB80
:101B6000EBE7414A137843F001031370BFE74FF4EA
:101B70007A7002F045FB012002F070FB344B1B78B9
:101B80005BB1324B1B7883B1374A137823F00203E1
:101B900013702E4B00221A70A9E72848014602F064
:101BA0004BFB254B01221A70EBE72F4A137823F0E9
:101BB000010313709BE7012002F09CFB1E4B0122E6
:101BC0001A700020014602F037FB02F019FC0128D0
:101BD0007FF453AF184B00221A701D4B1B781BB9B2
:101BE000134B03221A7048E7114B04221A7044E782
:101BF000333333333333D33FA80A002000000020AF
:101C0000180A0020F00A0020600A00200D0A0020B7
:101C1000380B0020010C00207C0B002000406540A8
:101C200000003940680C0020D80C0020080C00206F
:101C3000C00C0020300D0020610C002000000C4280
:101C4000620C0020630C0020100A0020ED0B002025
:101C5000EC0B0020020C0020600C0020050C002082
:101C6000040C0020000070410C0A0020002002F04B
:101C700041FB494B1A784949494800F01CFC494B43
:101C80001B78012B23D0032B2FD063B1464B1B783D
:101C9000002B3FF4F2AE4FF4487002F0B1FA434B20
:101CA00000221A70E9E6022002F0D8FA002001466C
:101CB00002F0C2FA01243E4B1C70642000F068FC64
:101CC0003C48014602F0B8FA364B1C70DEE740F2A1
:101CD000145002F095FA304B187800F0010002F031
:101CE000BDFA304B03221A70D0E73248014602F0A9
:101CF000A3FACBE72B4B1B78032B16D8DFE803F0B6
:101D000002223046022002F0A9FA0020014602F029
:101D100093FA0124264B1C70642000F039FC2548FE
:101D2000014602F089FA1F4B1C701F4B1B78002BD9
:101D30003FF4A3AE4FF4487002F062FA1B4B00224E
:101D40001A709AE640F2145002F05AFA124B1878C0
:101D500000F0010002F082FA124B02221A70E4E74E
:101D60001448014602F068FA134B1B78002BDCD0B4
:101D70004FF4167002F044FA074B1878C0F3400095
:101D800002F06CFA074B03221A70CEE709480146AD
:101D900002F052FAC9E700BF0C0A002038A7000879
:101DA000380B0020300D0020600C0020C00C0020FB
:101DB000610C002000000C42620C002082B0002167
:101DC00000910B4B5A6C42F480425A645A6C02F4F4
:101DD00080420092009A01911A6C42F080521A647B
:101DE0001B6C03F080530193019B02B0704700BF4E
:101DF00000380240FEE7FEE7FEE7FEE7FEE7704739
:101E00007047704708B500F0B1FB08BD08B502483F
:101E100001F0A1F908BD00BFA80A002010B582B0EA
:101E20000A4C204602F026F823681A6812F0100FB8
:101E300001D102B010BD002201921A6801925B68C4
:101E40000193019B204602F0E5F9F2E7380B0020F0
:101E500008B5024802F00EF808BD00BF7C0B002058
:101E60000120704708B502F0EFFC162303604FF025
:101E7000FF3008BD08B54FF0FF31FFF7F3FFFEE775
:101E800070B50C461646002506E0AFF300802146EB
:101E900001F8010B01350C46B542F6DB304670BD4A
:101EA00070B50C461646002504E014F8010BAFF39C
:101EB00000800135B542F8DB304670BD4FF0FF3091
:101EC00070474FF400534B6000207047012070476B
:101ED0000020704710B503460C4A0D490D480068B4
:101EE00040B10C4800680344521A934206D8094A8C
:101EF000136010BD0748084C0460F2E702F0A4FC30
:101F00000C2303604FF0FF30F3E700BF0000012017
:101F100000040000140A0020880D00207047000013
:101F200000B58DB02422002103A802F0B7FC0023E5
:101F30000193029311484FF0804202604360836036
:101F40004FF0FF32C2600361836101230393059365
:101F5000099303A901F062FA50B900230193029397
:101F600001A9064801F0CEFC28B90DB05DF804FBCC
:101F7000FFF794FCF1E7FFF791FCF6E7600A002019
:101F800000B587B000230293039304930593009355
:101F900001931548154A026053224260836040F263
:101FA000E732C2600361836101F0E0F990B94FF458
:101FB0008053029302A90C4801F038FB68B9002352
:101FC000009301936946084801F09CFC40B907B0B2
:101FD0005DF804FBFFF762FCE9E7FFF75FFCEEE763
:101FE000FFF75CFCF3E700BFA80A002000040040F4
:101FF00000B58DB02422002103A802F04FFC00237D
:10200000019302931148124A0260436083604FF0CB
:10201000FF32C26003618361012303930593099337
:1020200003A901F0FBF950B900230193029301A920
:10203000064801F067FC28B90DB05DF804FBFFF716
:102040002DFCF1E7FFF72AFCF6E700BFF00A0020BD
:10205000000C004000B583B00368154A934205D0D8
:10206000144A93420FD003B05DF804FB00230093A1
:10207000114B5A6C42F001025A645B6C03F001038D
:102080000093009BEFE7002201920B4B196C41F08B
:10209000020119641B6C03F002030193019B0221EE
:1020A0001D2000F09BFA1D2000F0D0FADBE700BFF6
:1020B00000000140000400400038024070B58AB0C2
:1020C0000023059306930793089309930368B3F1DC
:1020D000804F04D02D4A934237D00AB070BD0024FF
:1020E000009403F50E331A6C42F001021A641A6C64
:1020F00002F001020092009A01941A6B42F0010270
:102100001A631A6B02F001020192019A02941A6B8F
:1021100042F002021A631B6B03F002030293029B5C
:1021200020230593022606960125099505A918483E
:1021300000F00CFB08230593069607940894099574
:1021400005A9144800F002FBC7E700210391124BD8
:102150001A6C42F008021A641A6C02F00802039228
:10216000039A04911A6B42F001021A631B6B03F08D
:1021700001030493049B032305930223069309930D
:1021800005A9034800F0E2FAA7E700BF000C0040F1
:1021900000000240000402400038024000B587B051
:1021A00000230193029303930493059302680F4B5A
:1021B0009A4202D007B05DF804FB002300930C4B59
:1021C0001A6B42F001021A631B6B03F001030093C8
:1021D000009B4FF4A0630193022302930123059314
:1021E00001A9044800F0B2FAE4E700BF0000014092
:1021F000003802400000024010B596B0002412944E
:102200001394149415941094119409940A940B94B3
:102210000C940D940E940F942022214601A802F0F4
:102220003DFB3148314B03604460846042F2CF0390
:10223000C36004614461846101F098F800283ED1D4
:102240004FF48053129312A9274801F0EFF90028A8
:1022500038D1254801F0B6F8002836D10023109374
:10226000119310A9204801F04DFB002830D16023C4
:10227000099300220A920B920C920D920E920F92E9
:1022800009A9194801F058F928BB082209A91648DC
:1022900001F052F910BB00230193029303930493BE
:1022A00005934FF400520692089301A90E4801F0DD
:1022B00067FBB0B90C48FFF771FF16B010BDFFF710
:1022C000EDFABDE7FFF7EAFAC3E7FFF7E7FAC5E77C
:1022D000FFF7E4FACBE7FFF7E1FAD6E7FFF7DEFA1C
:1022E000D9E7FFF7DBFAE5E7180A00200000014014
:1022F00008B50A480A4B03604FF4E13343600023FA
:102300008360C36003610C2242618361C36101F099
:102310008DFC00B908BDFFF7C1FAFBE7380B0020C0
:102320000010014008B50A480A4B03604FF4E1333E
:10233000436000238360C36003610C2242618361B8
:10234000C36101F073FC00B908BDFFF7A7FAFBE712
:102350007C0B002000440040F0B58BB000230593B7
:1023600006930793089309930368394A934204D06C
:10237000384A934241D00BB0F0BD00240094364B54
:102380005A6C42F010025A645A6C02F01002009229
:10239000009A01941A6B42F001021A631A6B02F060
:1023A00001020192019A02941A6B42F002021A632E
:1023B0001B6B03F002030293029B4FF4007305931F
:1023C00002270697032608960725099505A923489D
:1023D00000F0BCF9802305930697079408960995A9
:1023E00005A91F4800F0B2F922460121252000F07E
:1023F000F5F8252000F02AF9BDE700240394164BD8
:102400001A6C42F400321A641A6C02F4003203921D
:10241000039A04941A6B42F001021A631B6B03F0D7
:1024200001030493049B0C230593022306930323C7
:1024300008930723099305A9084800F087F9224665
:102440000121262000F0CAF8262000F0FFF892E7CC
:1024500000100140004400400038024000000240EB
:1024600000040240DFF834D00D480E490E4A002324
:1024700002E0D458C4500433C4188C42F9D30B4A38
:102480000B4C002301E013600432A242FBD3FFF7A0
:1024900045FD02F0DFF9FFF757FA70470000012011
:1024A00000000020F00900206CAB0008F0090020BB
:1024B000840D0020FEE70EB430B5A2B0054625AB72
:1024C00053F8042B2193802101A802F039FA044625
:1024D0004FF0FF3382B201A9284601F0D6FB204617
:1024E00022B0BDE8304003B07047000010B504468C
:1024F0000E4B18784FF47A73B3FBF0F30C4A106864
:10250000B0FBF3F000F0B0F868B90F2C01D901204E
:102510000AE0002221464FF0FF3000F05FF8054B43
:102520001C60002000E0012010BD00BF340000202E
:10253000300000203800002008B50B4B1A6842F428
:1025400000721A601A6842F480621A601A6842F4D3
:1025500080721A60032000F02FF80020FFF7C6FFFA
:10256000FFF72CFC002008BD003C0240034A116824
:10257000034B1B780B441360704700BFC00B002057
:1025800034000020014B1868704700BFC00B0020CA
:1025900038B50446FFF7F6FF0546B4F1FF3F02D019
:1025A000044B1B781C44FFF7EDFF401BA042FAD3FD
:1025B00038BD00BF34000020074AD36823F4E0632D
:1025C0001B041B0C000200F4E060034343F0BF63F4
:1025D00043F40033D360704700ED00E000B5194BC1
:1025E000DB68C3F30223C3F1070CBCF1040F28BF5F
:1025F0004FF0040C03F1040EBEF1060F18D9033B93
:102600004FF0FF3E0EFA0CFC21EA0C0199400EFA45
:1026100003F322EA0303194300280BDB0901C9B2C3
:1026200000F1604000F5614080F800135DF804FBA4
:102630000023E5E700F00F000901C9B2024B19546D
:10264000F4E700BF00ED00E014ED00E0002807DB38
:1026500000F01F02400901239340024A42F8203053
:10266000704700BF00E100E00138B0F1807F0BD27D
:102670004FF0E0235861054AF02182F82310002032
:10268000986107221A6170470120704700ED00E051
:1026900070B50446866DFFF775FF94F83530DBB2F0
:1026A000022B06D080236365002384F83430012098
:1026B00070BD05462268136823F016031360226874
:1026C000536923F080035361236CE3B122681368DC
:1026D00023F0080313602268136823F001031360DA
:1026E00023681B6813F0010F11D0FFF74BFF431B4A
:1026F000052BF5D920236365032084F835000023DA
:1027000084F83430D4E7A36C002BDFD1E3E7E26D2B
:102710003F239340B360012384F83530002084F8D0
:102720003400C5E790F83530DBB2022B03D08023AC
:10273000436501207047052380F83530026813682F
:1027400023F00103136000207047000000230F2BCB
:1027500000F2D28070B582B060E085685E0003242C
:10276000B44025EA0405CC68B4402C438460456835
:1027700025EA02054C68C4F300129A402A434260DD
:102780005AE0DC08083450F8246003F00702950092
:102790000F22AA4026EA020E0A69AA4042EA0E0265
:1027A00040F824205CE0042200E0002202FA0EF24D
:1027B0002A430234514D45F82420514A14686FEAE7
:1027C0000C0224EA0C054E6816F4803F01D04CEA56
:1027D00004054B4C2560646802EA04054E6816F453
:1027E000003F01D04CEA0405454C6560A46802EA4C
:1027F00004054E6816F4801F01D04CEA0405404CD5
:10280000A560E46822404D6815F4001F01D04CEA31
:1028100004023B4CE26001330F2B6BD801229A403B
:102820000C6804EA020C32EA0404F4D14C6804F0A7
:102830000304013C012C90D94A6802F00302032AE8
:1028400009D0C4685D000322AA4024EA02048A6811
:10285000AA402243C2604A6802F00302022A90D0D2
:1028600004684FEA430E032202FA0EF224EA02043D
:102870004A6802F0030202FA0EF2224302604A683A
:1028800012F4403FC7D0002201921E4A546C44F417
:1028900080445464526C02F480420192019A9C0874
:1028A000A51C164A52F8255003F003024FEA820E87
:1028B0000F2202FA0EF225EA0205134A90423FF473
:1028C00074AF02F5806290420ED002F580629042B1
:1028D0000CD002F5806290420AD002F580629042EC
:1028E0003FF461AF072261E701225FE702225DE763
:1028F00003225BE702B070BD704700BF00380140A3
:10290000003C0140003802400000024003691942C7
:1029100001D001207047002070470AB181617047E3
:102920000904816170470000002800F0E08170B563
:1029300082B00446036813F0010F3BD09F4B9B68A5
:1029400003F00C03042B2CD09C4B9B6803F00C036E
:10295000082B21D06368B3F5803F4FD0B3F5A02F8B
:1029600052D0964B1A6822F480321A601A6822F408
:1029700080221A606368002B50D0FFF703FE0546E3
:102980008E4B1B6813F4003F14D1FFF7FBFD401B77
:102990006428F5D90320B1E1884B5B6813F4800FFC
:1029A000D8D0864B1B6813F4003F03D06368002B1C
:1029B00000F09F81236813F0020F54D07F4B9B6877
:1029C00013F00C0F3ED07D4B9B6803F00C03082BDB
:1029D00033D0E368002B68D0794B01221A60FFF7EF
:1029E000D1FD0546754B1B6813F0020F54D1FFF75C
:1029F000C9FD401B0228F5D903207FE16F4A136807
:102A000043F480331360B5E76C4B1A6842F48022BC
:102A10001A601A6842F480321A60ABE7FFF7B2FD21
:102A20000546664B1B6813F4003FC3D0FFF7AAFDB1
:102A3000401B6428F5D9032060E1604B5B6813F408
:102A4000800FC6D15D4B1B6813F0020F03D0E36803
:102A5000012B40F05081594A136823F0F803216993
:102A600043EAC1031360236813F0080F42D063697F
:102A70006BB3534B0122C3F8802EFFF783FD05464D
:102A80004E4B5B6F13F0020F34D1FFF77BFD401B01
:102A90000228F5D9032031E1484A136823F0F803EE
:102AA000216943EAC1031360DDE7454B00221A6048
:102AB000FFF768FD0546414B1B6813F0020FD2D0AB
:102AC000FFF760FD401B0228F5D9032016E13C4BBF
:102AD0000022C3F8802EFFF755FD0546374B5B6F8C
:102AE00013F0020F06D0FFF74DFD401B0228F5D969
:102AF000032003E1236813F0040F77D02F4B1B6CE6
:102B000013F0805F33D1002301932C4B1A6C42F0F9
:102B100080521A641B6C03F080530193019B0125C2
:102B2000284B1B6813F4807F23D0A368012B34D07B
:102B3000052B38D0214B1A6F22F001021A671A6F49
:102B400022F004021A67A368002B3DD0FFF71AFD9C
:102B500006461A4B1B6F13F0020F46D1FFF712FD0A
:102B6000801B41F288339842F3D90320C6E0002548
:102B7000D6E7144A136843F480731360FFF702FD2D
:102B80000646104B1B6813F4807FCED1FFF7FAFC8A
:102B9000801B0228F5D90320B0E0084A136F43F0E8
:102BA00001031367CFE7054B1A6F42F004021A675F
:102BB0001A6F42F001021A67C5E700BF00380240F1
:102BC0000000474200700040FFF7DCFC0646524B15
:102BD0001B6F13F0020F08D0FFF7D4FC801B41F2EB
:102BE00088339842F3D9032088E0EDB9A369002B1C
:102BF00000F08380484A926802F00C02082A51D003
:102C0000022B17D0454B00221A66FFF7BBFC044687
:102C1000414B1B6813F0007F42D0FFF7B3FC001B51
:102C20000228F5D9032069E03B4A136C23F0805356
:102C30001364DBE7394B00221A66FFF7A3FC054655
:102C4000354B1B6813F0007F06D0FFF79BFC401B41
:102C50000228F5D9032051E0E369226A1343626A2E
:102C600043EA8213A26A5208013A43EA0243E26A43
:102C700043EA0263284A5360284B01221A66FFF791
:102C800081FC0446244B1B6813F0007F06D1FFF73C
:102C900079FC001B0228F5D903202FE000202DE04D
:102CA00000202BE0012B2BD01B4B5B6803F4800131
:102CB000E269914226D103F03F02216A8A4223D180
:102CC000616A47F6C0721A40B2EB811F1ED103F44D
:102CD0004031A26A5208013AB1EB024F18D103F019
:102CE0007063E26AB3EB026F14D1002006E00120AA
:102CF0007047012002E0012000E0002002B070BD1A
:102D00000120FBE70120F9E70120F7E70120F5E7C3
:102D10000120F3E70120F1E70038024000004742BC
:102D200008B5254B9B6803F00C03042B3FD0082B00
:102D30003FD1214B5A6802F03F025B6813F4800FC9
:102D400012D01D4B5968C1F388111C480023A1FB08
:102D50000001FEF70FFA184B5B68C3F30143013320
:102D60005B00B0FBF3F025E0134B5968C1F3881CFE
:102D70004FEA4C11B1EB0C006EEB0E0E4FEA8E13C6
:102D800043EA90638101091A63EB0E03DB0043EA17
:102D90005173C90011EB0C0C43F10003990200239D
:102DA0004FEA8C2041EA9C51FEF7E4F9D3E703484F
:102DB00000E0034808BD00BF0038024040787D01B4
:102DC0000024F400002800F09B8070B50D460446F6
:102DD0004F4B1B6803F007038B4208D2CBB24C4A1F
:102DE0001370136803F007038B4240F08B80236855
:102DF00013F0020F17D013F0040F04D0454A936864
:102E000043F4E0539360236813F0080F04D0414A61
:102E1000936843F4604393603E4A936823F0F00361
:102E2000A1680B439360236813F0010F32D06368ED
:102E3000012B21D09A1E012A25D9364A126812F098
:102E4000020F61D033498A6822F0030213438B607A
:102E5000FFF798FB06462F4B9B6803F00C03626854
:102E6000B3EB820F16D0FFF78DFB801B41F2883346
:102E70009842F0D9032042E0264A126812F4003F3B
:102E8000E0D101203BE0234A126812F0007FD9D143
:102E9000012034E01E4B1B6803F00703AB4207D947
:102EA000EAB21B4B1A701B6803F00703AB422DD12B
:102EB000236813F0040F06D0164A936823F4E053F6
:102EC000E1680B439360236813F0080F07D0114AA1
:102ED000936823F46043216943EAC1039360FFF7D9
:102EE0001FFF0C4B9B68C3F303130B4AD35CD84002
:102EF0000A4B18600A4B1868FFF7F8FA002070BDFB
:102F0000012070470120FAE70120F8E70120F6E7E9
:102F1000003C02400038024040A70008300000207A
:102F200038000020014B1868704700BF30000020B7
:102F300008B5FFF7F7FF044B9B68C3F38223034AEE
:102F4000D35CD84008BD00BF0038024050A700083D
:102F500008B5FFF7E7FF044B9B68C3F34233034A0E
:102F6000D35CD84008BD00BF0038024050A700081D
:102F700070B4036A23F001030362036A466882693E
:102F800022F073020C6844EA020523F002028B6807
:102F900013430D4CA04209D00B4CA0420DD046600B
:102FA00085614A684263036270BC704723F008037E
:102FB000CA68134323F00403EEE726F440764A6917
:102FC00032438E691643EAE70000014030B4036AD9
:102FD00023F480730362036A4568C26922F07302B6
:102FE0000C68224323F400738C6843EA04230F4CDB
:102FF000A04209D00D4CA0420ED04560C2614A6883
:10300000C263036230BC704723F40063CC6843EAB8
:10301000042323F48063EDE725F440554C6945EA29
:1030200004158C6945EA0415E7E700BF000001407C
:1030300030B4036A23F480530362036A4468C269AC
:1030400022F4E6420D6842EA052223F400538D681B
:1030500043EA0533074DA84206D04460C2614A687E
:103060000264036230BC704724F480444D6944EA32
:103070008514F2E70000014010B4036A046A24F0EA
:1030800001040462846924F0F00C4CEA021223F07B
:103090000A030B438261036210BC704710B4046AD8
:1030A00024F0100404628469036A24F4704C4CEA2E
:1030B000023223F0A00343EA01138261036210BCD1
:1030C0007047836823F070030B4343F0070383606A
:1030D0007047000090F83D30DBB2012B2FD1022366
:1030E00080F83D300268D36843F00103D360036881
:1030F000154A934218D0B3F1804F15D0A2F57C4207
:10310000934211D002F5806293420DD002F58062A5
:10311000934209D002F59A32934205D01A6842F0E0
:1031200001021A60002070479A6802F00702062A1E
:1031300007D01A6842F001021A600020704701208F
:1031400070470020704700BF000001407047704783
:1031500070477047704710B5044603681A6912F04B
:10316000020F11D0DA6812F0020F0DD06FF00202D8
:103170001A610123037703689B6913F0030F70D072
:10318000FFF7E6FF0023237723681A6912F0040F84
:1031900012D0DA6812F0040F0ED06FF004021A6138
:1031A0000223237723689B6913F4407F5FD0204676
:1031B000FFF7CEFF0023237723681A6912F0080F68
:1031C00012D0DA6812F0080F0ED06FF008021A6100
:1031D000042323772368DB6913F0030F4ED02046C6
:1031E000FFF7B6FF0023237723681A6912F0100F48
:1031F00012D0DA6812F0100F0ED06FF010021A61C0
:10320000082323772368DB6913F4407F3DD02046F1
:10321000FFF79EFF0023237723681A6912F0010F3E
:1032200003D0DA6812F0010F36D123681A6912F060
:10323000800F03D0DA6812F0800F34D123681A6946
:1032400012F0400F03D0DA6812F0400F32D1236839
:103250001A6912F0200F03D0DA6812F0200F30D173
:1032600010BDFFF774FF2046FFF773FF8AE7204683
:10327000FFF76DFF2046FFF76CFF9BE72046FFF747
:1032800066FF2046FFF765FFACE72046FFF75FFFCC
:103290002046FFF75EFFBDE76FF001021A6120468E
:1032A00001F06EF9C1E76FF080021A61204600F06C
:1032B00091FBC3E76FF040021A612046FFF74AFF17
:1032C000C5E76FF020021A61204600F082FBC7E7D5
:1032D0000368254A90420ED0B0F1804F0BD0A2F582
:1032E0007C42904207D002F58062904203D002F502
:1032F0008062904203D123F070034A6813431A4A54
:1033000090421AD0B0F1804F17D0A2F57C42904283
:1033100013D002F5806290420FD002F58062904295
:103320000BD002F59A32904207D002F580629042AB
:1033300003D002F58062904203D123F44073CA683F
:10334000134323F080034A69134303608B68C3620D
:103350000B688362044B984202D00123436170479B
:103360000B690363F9E700BF0000014040B310B5EB
:10337000044690F83D30F3B1022384F83D302146F5
:1033800051F8040BFFF7A4FF012384F8463084F8BA
:103390003E3084F83F3084F8403084F8413084F87F
:1033A000423084F8433084F8443084F8453084F85F
:1033B0003D30002010BD80F83C30FEF74BFEDBE7CF
:1033C0000120704740B310B5044690F83D30F3B18A
:1033D000022384F83D30214651F8040BFFF778FFB3
:1033E000012384F8463084F83E3084F83F3084F876
:1033F000403084F8413084F8423084F8433084F817
:10340000443084F8453084F83D30002010BD80F809
:103410003C30FFF79BFEDBE701207047002857D0C8
:1034200070B50D46044690F83D30002B4BD002237A
:1034300084F83D302268936823F4804323F0070327
:103440009360214651F8040BFFF742FF21688A6818
:103450008B690E6A2868104323F4407C2CF0030C1F
:10346000AA68AB6942EA032343EA0C0323F47C43D2
:1034700023F0FC03EA69D5F80CC04CEA022C4CEAB4
:10348000030C2A6A13032A6943EA021343EA0C0372
:1034900026F0AA066A686D6942EA0512324388601E
:1034A00021688B6123681A62012384F8463084F80E
:1034B0003E3084F83F3084F8423084F8433084F85A
:1034C0003D30002070BD80F83C30FEF7F7FDAEE7E0
:1034D0000120704730B4036A23F010030362036ACB
:1034E0004468826922F4E6420D6842EA052223F02C
:1034F00020038D6843EA05130E4DA84209D00D4DF7
:10350000A8420ED0446082614A688263036230BC84
:10351000704723F08003CD6843EA051323F040038E
:10352000EDE724F440644D6944EA85048D6944EA7A
:103530008504E7E70000014038B590F83C30012BE6
:1035400066D004460D46012380F83C300C2A5AD838
:10355000DFE802F0075959591B595959305959593F
:1035600044000068FFF704FD2268936943F00803F4
:1035700093612268936923F004039361226893693D
:1035800029690B43936100203EE00068FFF7A2FF2A
:103590002268936943F4006393612268936923F47A
:1035A0008063936122689369296943EA01239361E7
:1035B000002029E00068FFF709FD2268D36943F085
:1035C0000803D3612268D36923F00403D36122681E
:1035D000D36929690B43D361002015E00068FFF728
:1035E00027FD2268D36943F40063D3612268D3695D
:1035F00023F48063D3612268D369296943EA0123F4
:10360000D361002000E00120002384F83C3038BD65
:103610000220FCE710B4846824F47F4C42EA0322C1
:103620000A4342EA0C02826010BC704790F83C30BA
:10363000012B78D010B50446012380F83C300223DA
:1036400080F83D300268936823F47F4323F07703CA
:1036500093600B68602B4CD029D8402B54D00CD9E8
:10366000502B22D1CA6849680068FFF705FD502138
:103670002068FFF726FD002005E0202B0DD009D99A
:10368000302B0AD00120012384F83D30002384F838
:103690003C3010BD0BB1102B05D119462068FFF747
:1036A00010FD0020EFE70120EDE70120EBE7B3F587
:1036B000805F34D0B3F5005F0CD1CB684A6889686D
:1036C0000068FFF7A7FF2268936843F48043936084
:1036D0000020D8E7702B24D1CB684A68896800683D
:1036E000FFF798FF2268936843F077039360002008
:1036F000C9E7CA6849680068FFF7D0FC6021206804
:10370000FFF7DFFC0020BEE7CA6849680068FFF7E2
:10371000B3FC40212068FFF7D4FC0020B3E7002071
:10372000B1E70120AFE70220704701F01F0101233C
:1037300003FA01FC036A23EA0C030362036A02FA38
:1037400001F10B430362704710B504460846002997
:1037500032D194F83E30DBB2013B18BF0123002B7D
:1037600063D1002841D1022384F83E300122014672
:103770002068FFF7DAFF23682E4A934245D023687A
:103780002C4A934246D0B3F1804F43D0A2F57C42FD
:1037900093423FD002F5806293423BD002F58062B3
:1037A000934237D002F59A32934233D01A6842F0EE
:1037B00001021A60002037E0042908D008290DD042
:1037C00094F84130DBB2013B18BF0123C7E794F8FE
:1037D0003F30DBB2013B18BF0123C0E794F8403013
:1037E000DBB2013B18BF0123B9E7042805D0082844
:1037F00007D0022384F84130B8E7022384F83F3031
:10380000B4E7022384F84030B0E75A6C42F4004237
:103810005A64B4E79A6802F00702062A07D01A68C9
:1038200042F001021A60002010BD0120FCE70020D8
:10383000FAE700BF0000014038B5044690F83E00AA
:10384000C0B294F83F3094F84220D2B294F843C00A
:103850000D46B1B9012849D1012A48D1022384F883
:103860003E3084F842307DB3042D39D0012200214E
:103870002068FFF75AFF012204212068FFF755FF57
:1038800027E0DBB25FFA8CFC042912D0012833D187
:10389000012B2CD1012A31D1BCF1010F30D10223EF
:1038A00084F83E3084F83F3084F8423084F8433066
:1038B000D9E7012B1CD1BCF1010F1BD1022384F8E5
:1038C0003F3084F84330CEE7012200212068FFF723
:1038D0002CFF2268136843F001031360002006E008
:1038E000012204212068FFF720FFF2E7012038BD04
:1038F0000120FCE71846FAE70120F8E71846F6E74A
:103900001046F4E790F83C30012B34D010B401237A
:1039100080F83C30022380F83D3003685A689C6888
:1039200022F0700C0A6842EA0C025A600368134ADB
:10393000934212D0B3F1804F0FD0A2F57C42934254
:103940000BD002F58062934207D002F58062934269
:1039500003D002F59A32934204D124F080044A68DD
:1039600014439C60012380F83D30002380F83C30F4
:10397000184610BC70470220704700BF000001408D
:1039800090F83C30012B22D0012380F83C30CB68EA
:1039900023F440738A68134323F480634A68134313
:1039A00023F400630A68134323F480530A69134322
:1039B00023F400534A69134323F48043CA69134331
:1039C00002685364002380F83C3018467047022098
:1039D000704770477047026802F10C0353E8003FDC
:1039E00023F490730C3242E800310029F3D10268CD
:1039F00002F1140353E8003F23F00103143242E8BC
:103A000000310029F3D1036B012B05D0202380F86E
:103A10003E30002303637047026802F10C0353E851
:103A2000003F23F010030C3242E800310029F3D1AB
:103A3000ECE790F83D30DBB2212B01D0022070473B
:103A40008368B3F5805F17D0036A5A1C02621A7844
:103A500003685A60C38C9BB2013B9BB2C3844BB9D1
:103A60000268D36823F08003D3600268D36843F010
:103A70004003D360002070470369002BE4D1036A40
:103A80001B880268C3F308035360036A02330362AE
:103A9000E0E7000038B504460268136923F4405398
:103AA000C1680B431361836802691343426913437E
:103AB000C2691A430168CB6823F4164323F00C0350
:103AC0001343CB600268536923F4407381690B434D
:103AD00053610368314A934206D002F580629342F3
:103AE00002D0FFF725FA01E0FFF732FAE369B3F5F8
:103AF000004F29D00021031849411B1841F1000152
:103B0000C90041EA5371DB00181863684FEA830269
:103B10004FEA937341F10001FDF72CFB204DA5FB0B
:103B200000325109642303FB11031B013233A5FB4F
:103B300003235B0903F0F00202EB011203F00F0311
:103B4000216813448B6038BD0023021843EB030146
:103B5000121841F10001C90041EA5271D200101857
:103B600041F10001626892185B41FDF703FB0C4DC7
:103B7000A5FB00325109642303FB1103DB00323340
:103B8000A5FB03235B095A0002F4F87202EB011251
:103B900003F00703216813448B60D4E70010014051
:103BA0001F85EB512DE9F84305460F461646994609
:103BB000DDF820802C68246837EA04030CBF4FF03E
:103BC000010C4FF0000CB4452DD1B8F1FF3FF1D0FE
:103BD000B8F1000F05D0FEF7D5FCA0EB0900404579
:103BE000E8D92A6802F10C0353E8003F23F4D073AC
:103BF0000C3242E800310029F3D12A6802F11403A3
:103C000053E8003F23F00103143242E80031002959
:103C1000F3D1202385F83D3085F83E30002385F828
:103C20003C30032000E00020BDE8F88358B310B515
:103C3000044690F83D300BB3242384F83D302268CD
:103C4000D36823F40053D3602046FFF723FF226894
:103C5000136923F4904313612268536923F02A0304
:103C600053612268D36843F40053D360002020647A
:103C7000202384F83D3084F83E3010BD80F83C307D
:103C8000FEF76AFBD8E7012070472DE9F04182B0CA
:103C90001E4690F83D30DBB2202B54D104460D4631
:103CA0009046002953D0002A53D090F83C30012B85
:103CB00051D0012380F83C3000230364212380F895
:103CC0003D30FEF75FFC0746A4F82480A4F8268068
:103CD000A368B3F5805F05D04FF00008002384F897
:103CE0003C3012E0236913B14FF00008F6E7A84614
:103CF0000025F3E738F8023B2268C3F3080353605A
:103D0000E28C92B2013A92B2E284E38C9BB273B13C
:103D100000963B46002280212046FFF743FFE0B992
:103D2000002DE7D015F8012B23685A60E8E70096CC
:103D30003B46002240212046FFF734FF78B920237C
:103D400084F83D3000E0022002B0BDE8F08101209F
:103D5000FAE70120F8E70220F6E70320F4E7032062
:103D6000F2E7704708B50168CA6822F04002CA60ED
:103D7000202280F83D20FFF7F4FF002008BD7047A7
:103D800008B5806B0023C385C384FFF7F8FF08BD27
:103D9000704790F83E30DBB2222B67D18368B3F5D1
:103DA000805F4DD0826AB3F5805F04D0002B54D180
:103DB0000369002B51D103685B681370836A013378
:103DC0008362C38D9BB2013B9BB2C385002B4FD155
:103DD00000B583B00268D36823F02003D360026883
:103DE000D36823F48073D3600268536923F001031E
:103DF0005361202380F83E30036B012B33D1002325
:103E00000363026802F10C0353E8003F23F0100340
:103E10000C3242E800310029F3D103681A6812F02D
:103E2000100F06D0002201921A6801925B6801937C
:103E3000019B818DFFF7ACFF002003B05DF804FB10
:103E40000269002AAED1826A03685B68C3F3080383
:103E50001380836A02338362B3E703685B6803F00D
:103E60007F031370AAE700F0D5FAE5E70220704758
:103E70000020704730B583B0044602681368D068EC
:103E8000516913F00F0505D113F0200F02D010F087
:103E9000200F19D12DB111F0010119D110F4907F2B
:103EA00016D1216B01297DD013F0800F03D010F0C3
:103EB000800F40F0158113F0400F03D010F0400F39
:103EC00040F0128103B030BD2046FFF762FFF9E7F2
:103ED00013F0010F06D010F4807F03D0226C42F063
:103EE0000102226413F0040F04D019B1226C42F0D5
:103EF0000202226413F0020F04D019B1226C42F0C6
:103F00000402226413F0080F07D010F0200F00D134
:103F100019B1226C42F008022264226C002AD1D02E
:103F200013F0200F02D010F0200F29D123685B6915
:103F300003F04003226C12F0080F00D163B3204657
:103F4000FFF749FD23685B6913F0400F20D022681A
:103F500002F1140353E8003F23F04003143242E817
:103F600000310029F3D1A36B73B1614A1A65A06BCC
:103F7000FEF7D8FB0028A5D0A06B036D9847A1E7FA
:103F80002046FFF706FFD1E72046FFF7F8FE99E746
:103F90002046FFF7F4FE95E72046FFF7F0FE0023EA
:103FA00023648FE713F0100F3FF47EAF10F0100F73
:103FB0003FF47AAF00230193136801935368019390
:103FC000019B536913F0400F50D0A26B13685B68DC
:103FD0009BB2002B3FF476AFA18D99427FF672AF72
:103FE000E385D369B3F5807F37D0226802F10C03F3
:103FF00053E8003F23F480730C3242E8003100297B
:10400000F3D1226802F1140353E8003F23F00103C7
:10401000143242E800310029F3D1226802F114037E
:1040200053E8003F23F04003143242E800310029F6
:10403000F3D1202384F83E3000232363226802F169
:104040000C0353E8003F23F010030C3242E8003128
:104050000029F3D1A06BFEF71BFBA18DE38D9BB272
:10406000C91A89B22046FFF793FE2BE7A18DE38D95
:104070009BB2C91A89B2E38D9BB2002B3FF422AFE9
:1040800000293FF41FAF226802F10C0353E8003F00
:1040900023F490730C3242E800300028F3D12268F8
:1040A00002F1140353E8003F23F00103143242E805
:1040B00000300028F3D1202384F83E30002323630E
:1040C000226802F10C0353E8003F23F010030C3286
:1040D00042E800300028F3D12046FFF759FEF1E610
:1040E0002046FFF7A6FCEDE62046FFF73BFEE9E69B
:1040F000813D0008034681628285C28500201864E4
:10410000222283F83E2083F83C001968CA6842F4F2
:104110008072CA6019684A6942F001024A611A68ED
:10412000D36843F02003D360704708B590F83E3061
:10413000DBB2202B0DD171B17AB190F83C30012B5C
:104140000DD0012380F83C3000230363FFF7D2FF3A
:1041500000E0022008BD0120FCE70120FAE7022070
:10416000F8E70000014B1860704700BF3C000020DA
:1041700038B5002400E00134092C1AD80D4B53F84F
:104180002450002DF7D0288980B2FCF7B9FD0A4BE6
:104190001968FCF701FDFCF7CDFF80B228812B895F
:1041A0009BB269888B42E6D300232B816B689847CA
:1041B000E1E738BDC40B00203C0000200278024B30
:1041C00043F82200704700BFC40B002070B50646BC
:1041D0000D46002406E004EB440006EB8000FFF7E8
:1041E000EDFF0134A542F6DC70BD000008B54FF4C8
:1041F00000710248FEF78AFB08BD00BF00040240C0
:104200004FF080435A6A4FF080435B6A9B1A8342A7
:10421000F9D3704710B5064C012206492046FFF736
:1042200084FF2268D36843F01003D36010BD00BF41
:10423000380B00200D0A002010B50C46FCF744F99D
:10424000044BC3E900012046FCF73EF9024BC3E9E9
:10425000000110BDF00B0020F80B002008B51F4B2B
:1042600001221A704FF080435A6A1D4B1A601D4B91
:104270005A6A1D4B1A60012821D0022804D088B147
:10428000164B00221A7008BD18491948FFF7D4FFD1
:104290004FF080435B6A124A12689B1AB3F52A7F7B
:1042A000F6D3EDE712490020FFF7C6FF0D4B5B6A1E
:1042B0000D4A12689B1AB3F52F7FF7D3E0E7002170
:1042C0000B48FFF7B9FF4FF080435B6A044A12685E
:1042D0009B1AB3F52F7FF6D3D2E700BF610C002005
:1042E000640C0020000C0040D00C002000000CC228
:1042F00000000C4210B5044610F0020F15D0002249
:1043000080211348FEF709FB14F0010F13D000229F
:1043100040210F48FEF701FB14F0040F11D00022DA
:1043200001210C48FEF7F9FA10BD0122802108484E
:10433000FEF7F3FAE8E7012240210548FEF7EDFA1F
:10434000EAE7012211460348FEF7E7FAECE700BF6F
:1043500000000240000402402DE9F0478246D0E907
:104360000823D0E90C01FBF74FFF04460D46CAE9CC
:104370000E45DAE91223FBF749FF80468946CAE970
:104380001289DAE9102320462946FBF73DFF06464D
:104390000F46CAE91467CAE91045DAE90023204646
:1043A0002946FCF7E9F804460D46DAE902234046BF
:1043B0004946FCF7E1F802460B4620462946FBF742
:1043C00025FF04460D46DAE9042330463946FCF75A
:1043D000D3F802460B4620462946FBF717FFBDE8F7
:1043E000F087C0E90023DDE90023C0E90223DDE90D
:1043F0000223C0E90423DDE90423C0E90C2370474C
:1044000008B520210248FEF781FA00B1012008BD5D
:104410000004024002684F4B9A4200D0704770B5CA
:104420004D4C012221464D48FFF77FFE25780A2D8D
:104430000AD0782D08D0792D15D105E048492046BD
:10444000FCF766FD474B1860464B1C684FF07E51E9
:104450002046FCF75BFE0028F0D1434B1B78782BFD
:1044600021D0792B38D0782D40D0792D4CD02D2DDE
:1044700058D02E2D5AD0A5F13003DBB2092B42D8EB
:104480003A4B1B68002B55D0364E35493068FCF747
:104490008BFC0446A5F13000FCF732FC2146FCF70A
:1044A0007BFB30602FE0324B1B687BB1314B1968CE
:1044B0002046FCF771FB00F10040FCF705F82E4B9D
:1044C000C3E90801284B00221A70CCE7294B196870
:1044D0002046FCF761FBF0E7264B1868FCF72AFE44
:1044E000264B1870204B00221A70BCE71E4B782216
:1044F0001A7000231E4A13601C4A136000231D4AD1
:104500001360184A136070BD174B79221A7000238C
:10451000174A1360154A13600023164A1360114AA4
:104520001360F0E7124B01221A60A2E70F4B012241
:104530001A60A0E70F4E0A493068FCF735FC0446C4
:10454000A5F13000FCF7DCFB2146FCF725FB3060D1
:10455000D9E700BF001001400D0A0020380B0020F1
:1045600000002041380D0020000C0020C80C002065
:10457000C40C0020340D0020080C0020030C002087
:1045800008B50268034B9A4200D008BDFFF7F0FD62
:10459000FBE700BF0004004070B505460C46164618
:1045A000FCF7BEFD28B931462846FCF79BFD10B14B
:1045B0003446204670BD2C46FBE700002DE9F0474D
:1045C00016461F46DFF8B4A02D4CFCF78FFA524672
:1045D0002146FFF7E1FF0546FBF776FF8146884657
:1045E00030463946FCF782FA52462146FFF7D4FF9F
:1045F0000446FBF769FF07460E4600212846FCF7F4
:1046000085FDE8B101224FF480711E48FEF785F95F
:104610002846FCF78FFD80B21B4B586300212046D3
:10462000FCF774FDD8B1002240211648FEF775F959
:104630002046FCF77FFD80B2134BD863BDE8F087BE
:1046400000224FF480710F48FEF767F9484608F1E1
:104650000041FCF72BFA80B20B4B5863DEE70122D6
:1046600040210848FEF759F9384606F10041FCF7A9
:104670001DFA80B2044BD863E0E700BF003C03C6DC
:10468000003C03460004024000000140F8B54FF032
:1046900080435B6A364DEB61364A566A364CE661BA
:1046A000A869181AFBF7FEFE0022344BFBF764FFE3
:1046B0000022334BFBF760FF0022324BFCF786F8F9
:1046C00000222F4BFCF782F800222F4BFBF754FF00
:1046D000C5E90801A069301AFBF7E4FE0022274B68
:1046E000FBF74AFF0022264BFBF746FF0022254B33
:1046F000FCF76CF80022224BFCF768F80022224BF2
:10470000FBF73AFFC4E908012048FFF725FEFCF754
:10471000EDF91F4B1B7803B10020FBF7D5FE0646D1
:104720000F4602460B461B49D1E90001FBF76CFD21
:104730000F4DC5E90C01184BD3E90023304639462B
:10474000FBF764FD0C4CC4E90C012846FFF704FE9E
:1047500006460F462046FFF7FFFD02460B46304651
:104760003946FFF72BFFEB69AB61E369A361F8BD45
:10477000680C0020000C0040D80C002000005940BC
:104780000000344000002A400000E03F080C0020F8
:10479000610C0020F00B0020F80B002008B5094B3D
:1047A0001B7803F00101084A1170C3F34101074A65
:1047B000117003F01003064A1370FFF717FD054B45
:1047C000187008BD030C0020620C0020020C0020B1
:1047D000630C0020600C00207047000008B5134BEC
:1047E0001B78012B00D008BD114B1B78002BFAD091
:1047F000104B1B7833B10F4B00221A700E4B5A6AC4
:104800000E4B1A600C4B5B6A0C4A12689B1AB3F58C
:10481000C87FE8D90A4B1B78002BE4D1044B002257
:104820001A7008480146FFF707FDDCE7C00C0020BE
:10483000040C0020050C0020000C0040CC0C0020D3
:10484000610C002000000C42014B1868704700BF4B
:104850004000002070B50D4E0D4D761BB61006D0F1
:10486000002455F8043B01349847A642F9D1094E7B
:10487000094D761B05F052FFB61006D0002455F8FE
:10488000043B01349847A642F9D170BD60AB0008E3
:1048900060AB000868AB000860AB0008830730B568
:1048A00048D0541E002A3FD0CAB2034601E0013C62
:1048B0003AD303F8012B9D07F9D1032C2DD9CDB2A2
:1048C00045EA05250F2C45EA054536D9A4F1100225
:1048D00022F00F0C03F1200EE6444FEA121C03F104
:1048E000100242E9045542E9025510327245F8D1EE
:1048F0000CF1010214F00C0F03EB021204F00F0C88
:1049000013D0ACF1040323F003030433134442F83F
:10491000045B9342FBD10CF003042CB1CAB21C44DB
:1049200003F8012B9C42FBD130BD64461346002C9A
:10493000F4D1F9E703461446BFE71A46A446E0E778
:1049400010B51A4C002924689AB02ADB0090049014
:104950004FF40270ADF80C0013D001394FF6FF7020
:1049600002910591ADF80E006946204600F04EF820
:10497000421C01DA8B232360009B00221A701AB0BC
:1049800010BD4FF6FF7002910591ADF80E0069461B
:10499000204600F03BF8431C01DA8B2323601AB059
:1049A00010BD8B2323604FF0FF30F8E7400000205C
:1049B000024B13B1024800F005B870470000000038
:1049C000D1490008002301461A46184601F03CBDB3
:1049D00038B5084B084D5B1B9C1007D0043B1D44A9
:1049E000013C55F804399847002CF9D1BDE838400E
:1049F00005F09ABE6CAB000868AB0008704700BFBA
:104A0000704700BF704700BF704700BF2DE9F04FEF
:104A1000D5B00C460C9191460E930A9002F0A4FE7C
:104A2000036817931846FCF72BFEA3891690190606
:104A300003D52369002B00F08B8700242BAB4D4658
:104A4000CDE92944CDE91944CDE91B4412942893BA
:104A500098461894002308940024CDE914342B7848
:104A6000002B00F0DD81AA4604E01AF8013F002B7C
:104A700000F01681252BF8D1BAEB050640F0148121
:104A80009AF80030002B00F0CB8100234FF0FF326A
:104A90009AF801608DF8833009930AF1010A0792B0
:104AA0001F462B244FF020090AF1010AA6F120032A
:104AB0005A2B00F22D81DFE813F0BA022B012B01F3
:104AC000B5022B012B012B016A002B012B014F0298
:104AD000E3022B015A02C9022B01C4025B005B00F6
:104AE0005B005B005B005B005B005B005B002B011D
:104AF0002B012B012B012B012B012B01BF012B01C2
:104B00001A028600BF01BF01BF012B012B012B013F
:104B10002B01B0022B012B01C3002B012B012B0118
:104B200024022B015F022B012B013C072B012B01DF
:104B30002B012B012B012B012B012B01BF012B0181
:104B40001A028800BF01BF01BF01A30288008100D3
:104B50002B0196022B018202C500700281002B01FD
:104B600024027E0039072B012B0119072B017E003F
:104B7000A6F1300300221AF8016B02EB820203EB6C
:104B80004202A6F13003092BF5D909928EE7DDF830
:104B900028B0584602F0E8FD43681B931846FCF71E
:104BA0006FFD1C900646584602F0DEFD836819939F
:104BB000002E40F07A869AF8006075E79AF8006057
:104BC00047F0200770E747F01007BA060E9B40F148
:104BD0008081073323F007031A465B6852F8084BBD
:104BE0000E929946002BC0F25F85079B013301F0BE
:104BF0001F8054EA090327F0800B00F0E3840A2C9D
:104C000079F1000380F08187303401238DF84F4122
:104C10005F460B930DF24F1507990B989DF8832073
:104C200081424FF00003B8BF01460D9306910F93E8
:104C300013931093002A7CD0069B0133069378E0EF
:104C400047F0100717F0200900F034810E9B07335E
:104C500023F00703D3F8049053F8084B0E9327F47E
:104C6000806B002300228DF88320079A511C00F0EE
:104C70000D8254EA09012BF0800740F00682002AD9
:104C800041F01080002B40F0A2841BF001030B9335
:104C900000F0378530238DF84F310DF24F15BBE70B
:104CA000BAEB050600F0BC802A9B33442A93299B6B
:104CB0000133072BC8E90056299305DC08F10808E1
:104CC000089B33440893DBE60C990A9828AA03F062
:104CD00031FC80B90DF1AC08F2E70C990A9828AACA
:104CE00003F028FC002800F08C800D9B1BB10D996F
:104CF0000A9802F033FC0C9B9B8913F0400F089B31
:104D000018BF4FF0FF330893089855B0BDE8F08FF7
:104D1000002E00F0858000228DF8EC608DF8832055
:104D2000012306930D920B9307920F921392109208
:104D30003BAD17F0020302D006990231069117F03D
:104D4000840B07D109990698A1EB0009B9F1000F6E
:104D500000F315832A9C8AB1299A0DF1830101324F
:104D60000134C8F80010072A4FF001012A94299253
:104D7000C8F8041000F3468308F1080883B1299BA2
:104D800021AA01330234C8F80020072B4FF0020299
:104D90002A942993C8F8042000F3488308F10808EE
:104DA000BBF1800F00F00E82079B0B9AA3EB020B66
:104DB000BBF1000F00F34F82FB0500F1A5810B9BB7
:104DC000C8F804301C44299BC8F800500133072B55
:104DD0002A94299300F3C78208F108087B0705D5B8
:104DE000099B069A9D1A002D00F32C83DDE90832F9
:104DF00006998A42ACBF9B185B180893002C7FF47D
:104E00006CAF002329930D9B1BB10D990A9802F0FA
:104E1000A5FB0DF1AC0855462B78002B7FF423AE93
:104E20002A9B002B3FF467AF0C9C0A9828AA2146C6
:104E300003F080FBA38960E70E9B073323F0070292
:104E4000F2E80234CDE91434DDE9143424F00044EE
:104E50000E92994618462146A74B4FF0FF32FCF7B9
:104E60007DFC002840F06284A34B484621464FF069
:104E7000FF32FBF7FDFD002840F05884DDE9140106
:104E800000220023FBF7EAFD002840F0AD879DF8E3
:104E900083209A4D9A4B27F080070321472EC8BFE5
:104EA0001D4600230D9306910B9107930F931393C7
:104EB0001093BFE617F0100340F02E8417F0400265
:104EC00000F054870E9A52F8044B0E929946A4B201
:104ED000C5E653F8044B0E93FB0600F118847D06DB
:104EE00040F1128444F3C0394B4624B27AE60E9B5B
:104EF000002253F8041B8DF883208DF8EC100E93DC
:104F00000EE70E9C079B54F8045B4FF000098DF8E8
:104F10008390002D00F0D5865A1C00F052851A4669
:104F200049462846FCF7ACFA0D90002801F057805E
:104F30000D9BCDF81C905B1B0B930E9423EAE3733F
:104F40009DF883200693CDF83490CDF83C90CDF8B1
:104F50004C90CDF840906DE60E9B53F8042B0992CF
:104F6000002A80F2C983099A0E93524209929AF854
:104F7000006047F0040797E547F0100B1BF020098D
:104F800000F081830E9B073323F00703D3F80490CE
:104F900053F8084B0E93012364E60E9B53F8044B21
:104FA0000E93302378268DF88430564B189347F0B3
:104FB000020B8DF885604FF00009022352E6BD0612
:104FC00000F18284FC0600F17386780600F13C87CC
:104FD000B90540F16D860E9B089953F8042B0E938A
:104FE0001170554618E79AF800606C2E03BF9AF8C6
:104FF000016047F020070AF1010A47F0100753E566
:105000009AF80060682E03BF9AF8016047F40077B1
:105010000AF1010A47F0400746E59AF8006047F0B8
:10502000080741E59AF8006047F001073CE59DF864
:105030008330002B7FF4BFAD9AF800608DF8839029
:1050400032E59AF8006047F080072DE5524612F8E5
:10505000016B2A2E01F0CD81A6F13003092B924677
:1050600098BF002201F288801AF8016B02EB8202DD
:1050700003EB4202A6F13003092BF5D9079215E59F
:105080009AF800608DF883400EE5BB46012B3FF493
:10509000B6AD022B54AD12D1189A04F00F032409B7
:1050A000D35C05F8013D44EA09744FEA191954EA42
:1050B0000903F2D154AB5B1B5F460B93ACE504F0E4
:1050C0000703E40844EA49744FEAD909303354EA43
:1050D00009012A4605F8013DF1D11BF0010FE9D085
:1050E000302BE7D03023023A05F8013C54AB9B1A31
:1050F0005F460B9315468FE5FFFFEF7F5CA7000827
:1051000060A700086CA70008652E40F3E680DDE983
:10511000140100220023FBF797FC002800F0CD814A
:10512000299BBF4AC8F80020013301340122072B14
:105130002A942993C8F8042000F37D8508F1080813
:10514000229B129A934280F2D382169B179A1C4498
:10515000C8E90023299B2A940133072B299300F3E4
:10516000EB8308F10808129B5D1E002D7FF736AE19
:10517000102D299BDFF8AC9240F36E8549462246FC
:10518000B946DDF828B00C9C10260F4605E008F162
:105190000808103D102D40F35B8501331032072BBA
:1051A000C8E90076CDE92932F1DD28AA2146584622
:1051B00003F0C0F900287FF498ADDDE929320DF144
:1051C000AC08E6E7099B069AA3EB020BBBF1000FC4
:1051D0007FF7EAADBBF1100F299ADFF848922CDD7A
:1051E0001D9621464E460C9CDDF82890102306E0C3
:1051F000ABF1100BBBF1100F08F108081ADD0132FA
:105200001031072AC8E90063CDE92921F0DD28AA79
:10521000214648460DF1AC0803F08CF900287FF4D4
:1052200064ADABF1100BBBF1100FDDE929214FF09C
:105230001003E4DCB1461D9E0C4601325C44072A93
:10524000CDE92924C8F80090C8F804B000F31D8502
:1052500008F10808A8E5BBF1100F299ADFF8C491FE
:105260002DDD41462046A8464C460C9DDDF8289091
:10527000102306E0ABF1100BBBF1100F01F1080198
:1052800019DD01321030072AC1E90043CDE9292098
:10529000F0DD28AA2946484603F04CF900287FF49F
:1052A00024ADABF1100BBBF1100FDDE929202BA9C8
:1052B0004FF01003E5DC4546A1468846044601321E
:1052C0005C44072ACDE92924C8F80090C8F804B046
:1052D00000F3CC8108F108086EE5129B012B40F326
:1052E0007C81299EC8F80050013601340123072E25
:1052F0002A942996C8F8043000F3E08108F10808E0
:10530000169B179A01361C44072EC8E90023CDE9E5
:10531000296400F3E08108F10808DDE914010022A6
:105320000023FBF791FB002840F07481129B0136AB
:10533000013B01351C44072EC8F800502996C8F8D7
:1053400004302A9400F3598108F108081A9BC8F820
:10535000043001361C44072E24ABCDE92964C8F87B
:1053600000307FF739AD0C990A9828AA03F0E2F8CB
:1053700000287FF4BAAC2A9C0DF1AC082EE5B9F1F7
:10538000100FDDE929212BDDCDE91D3B1F96DDF84E
:1053900028B04E461024A9460C9D04E0103E102E65
:1053A00008F1080817DD01321F4B1031072AC8E940
:1053B0000034CDE92921F1DD28AA294658460DF10E
:1053C000AC0803F0B7F800287FF48FAC103E102E25
:1053D000DDE92921E7DCDDE91D3B4D46B1461F9E95
:1053E000C8F80490013209EB0104072A0E49C8F8F5
:1053F0000010CDE9292400F3FF839DF8832008F1F4
:105400000808A8E40C990A981D9328AA03F092F8BA
:1054100000287FF46AAC2A9C1D9B0DF1AC08ADE41A
:105420009CA70008B0A70008A0A700080C990A983C
:1054300028AA03F07FF800287FF457AC2A9C0DF1CE
:10544000AC08ADE4102D299B21DD0A9FDDF83090DA
:10545000102604E0103D102D08F1080817DD013377
:10546000B04A1034072BC8E90026CDE92934F1DD14
:1054700028AA494638460DF1AC0803F05BF800282D
:105480007FF433AC103D102DDDE92934E7DC013326
:10549000A44AC8F804502C44072BCDE92934C8F895
:1054A00000207FF7A3AC0C990A9828AA03F042F8D1
:1054B00000287FF41AAC2A9C98E42299002940F332
:1054C0006683DDF84090129B9945A8BF9946B9F1D3
:1054D000000F0BDD299B01334C44072BC8E9005911
:1054E0002A94299300F32F8508F10808109EB9F13A
:1054F000000FA8BFA6EB0906002E00F33882DDF8E6
:1055000040B07805AB4400F16682229B129A934228
:1055100002DBF90740F18E84169A17991444C8E902
:105520000012299A2A940132072A299200F3188539
:1055300008F10808129AAE18A6EB0B06D51AAE426F
:10554000A8BF2E46002E0DDD299BC8F800B0013300
:105550003444072BC8F804602A94299300F31A8670
:1055600008F10808002EA8BFAD1B002D7FF736AC50
:10557000102D299BDFF8B09140F36E8349462246F7
:10558000B946DDF828B00C9C10260F4605E008F15E
:105590000808103D102D40F35B8301331032072BB8
:1055A000C8E90076CDE92932F1DD28AA214658461E
:1055B00002F0C0FF00287FF498ABDDE929320DF13D
:1055C000AC08E6E7079B002B7FF41EAB5F46002389
:1055D00007930B9354ADFFF71FBBFA073FF581AE5E
:1055E000299EC8F80050013601340123072E2A9461
:1055F0002996C8F804307FF7A7AE0C990A9828AA14
:1056000002F098FF00287FF470ABDDE929640DF10A
:10561000AC089BE6129B5D1E002D7FF797AE102D08
:10562000DFF8049140F39683224607970A9C0C9F6B
:105630004FF0100B05E008F10808103D102D40F365
:10564000878301361032072EC8E9009BCDE9296215
:10565000F1DD28AA3946204602F06CFF00287FF4CD
:1056600044ABDDE929620DF1AC08E6E70C990A9834
:1056700028AA02F05FFF00287FF437AB2A9C0DF1C7
:10568000AC08FFF799BB1BF0100340F028811BF01A
:10569000400200F079830E9A52F8044B0E9299461C
:1056A000A4B20123FFF7DEBA2D2364428DF88330C4
:1056B00069EB4909BB460123FFF7D7BA0C990A9851
:1056C00028AA02F037FF00287FF40FABDDE9296438
:1056D0000DF1AC0814E60C990A9828AA02F02AFFEA
:1056E00000287FF402ABDDE929640DF1AC0814E673
:1056F000FD077FF573AB28E59AF800600E93FFF77E
:10570000D3B954ADFFF788BAB80500F1A6834FEAC4
:10571000E4794B46FFF766BA0E9B53F8044B0E93A1
:10572000FFF79DBAA0A70008B0A70008DDE91401A3
:1057300002460B46FCF712F8002840F00F86612E57
:1057400000F04585412E00F06D84079B013326F063
:105750002003069300F0A983472B00F08885DDE93C
:10576000141247F480730F931346002BC0F29285F6
:105770000B9300231D938B460D93069B462B00F045
:10578000FD83452B00F044850799019126A90491DA
:1057900023A9039122A9029102210B9B0A9800914F
:1057A0005A4600F029FF069B472B054640F03186FC
:1057B00017F0010FB9460F9F40F0FC84269B5B1B3E
:1057C0001293069B472B00F08283069B462B00F02A
:1057D0001284229B1093109B069A013B412A22932C
:1057E00000F0AD85F2B20021002BB8BF109B8DF800
:1057F0009020BABFC3F101032D222B22092B8DF873
:10580000912040F38D850DF19F04B64F224610463E
:1058100087FB0321DA17C2EBA10202EB8201A3EBA3
:105820004101303100F8011C19466329134600F18B
:10583000FF32ECDC3033D9B2831E9C4202F8011CEB
:1058400040F2F18513460DF1920201E013F8011BBD
:1058500002F8011B9C42F9D10DF1A1030DF1920256
:105860001B1A134424AA9B1A1A93129B1A9A012BEF
:105870001A440B9240F39E850B9B169A13440B938C
:105880000B9A002329F4806722EAE27247F48077BA
:105890000F930692139310931D9B002B40F03F83B0
:1058A0009DF883200793FFF7C5B9199B002B3FF4A0
:1058B00082A9199B1B78002B3FF47DA99AF8006000
:1058C00047F48067FFF7F0B80E9B089853F8041B65
:1058D0000E93C217C1E900025546FFF79DBA0E9B11
:1058E00053F8044B0E930123FFF7BCB97E4B18937A
:1058F00017F0200900F0EC800E9B073323F007031C
:10590000D3F8049053F8084B0E93F80709D554EADE
:10591000090306D030238DF8856047F002078DF823
:10592000843027F4806B0223FFF79CB9BB46FFF756
:1059300025BB6E4B1893DBE70C990A9828AA02F056
:10594000F9FD00287FF4D1A92A9C0DF1AC080AE4E6
:105950000A98402101F00CFF0C9B18601861002888
:1059600000F065850C9A40235361FFF766B8102E4E
:10597000299BDFF87C9140F3298248464246214624
:10598000A846B9460A9C0C9D4FF0100B074604E050
:105990000832103E102E40F3138201331031072BD2
:1059A000C2E9007BCDE92931F2DD28AA294620464B
:1059B00002F0C0FD00287FF498A9DDE929312BAA67
:1059C000E7E72846CDF81C900E94FBF759FE0346F6
:1059D0000B90FFF7B3BA129BCDF82CA04246DDF82E
:1059E0004C801097EB1807935E46199FDDF8709076
:1059F000DDF828A0DDF830B00F9B13952146B8F1F3
:105A0000000F2FD0002B30D1013F08F1FF381B9B36
:105A1000C2E90039299B01334944072B2A91299374
:105A200068DC0832079B38789B1B8342A8BF03467B
:105A3000002B1C460BDD2998013019440728C2E9C8
:105A400000632A91299000F3148138780832002CE1
:105A5000ACBF051B0546002D0BDC06440F9BB8F1BF
:105A6000000FCFD1002B00F023820F9B013B0F933F
:105A7000CDE7102D29981DDD102404E0103D102DD8
:105A800002F1080216DD0130194B10310728C2E976
:105A90000034CDE92901F1DD28AA5946504602F02B
:105AA00049FD00287FF421A9103D102DDDE92901D1
:105AB0002BAAE8DC01300E4B556029440728CDE9BC
:105AC0002901136000F33282387808320644C5E7B2
:105AD00017F0100300F0A1800E9B53F8044B0E93B7
:105AE00013E700BF676666666CA7000880A700081A
:105AF000B0A7000828AA5946504602F01BFD00280E
